:02000004204892
:100000006F90115F00000000000000006F90916988
:100010000000000000000000000000006F90F16888
:100020000000000000000000000000006F90B153CD
:1000300000000000000000000000000000000000C0
:1000400000009721B85F9381E1C11731B85F1301B8
:10005000619E179503001305A5249715B85F938536
:10006000653A1386419963FAC5008322050023A0EF
:10007000550011059105E3EAC5FE13858199938525
:10008000015D6377B500232005001105E36DB5FE22
:1000900017250200130585EBEF10D268EF10D2741C
:1000A00097000000411106C401458145EF90911869
:0800B00021A001A082808280E2
:1000B800130101FFB7374A202324810023261100AA
:1000C800938787451304050063860700930500009E
:1000D800EF30023803A5419883278502638407001F
:1000E800E780070013050400EF30927E01112AC64D
:1000F8002EC4B247224798C385473ECE11A8F2477F
:100108008A073247BA9723A00700F24785073ECEF1
:1001180072479D47E3F5E7FE010001000561828013
:1001280001112AC62EC432C202CE02CCBDA0F247AB
:100138003E888148E2478A072247BA979C433E8314
:10014800814333076800BA86B3B60601B3877800DF
:10015800BE96B6873A86BE86E2478A071247BA979E
:100168009C433E8E814E3307C601BA85B3B5C500A0
:10017800B387D601B386F500B6873AC83ECAE247C8
:100188008A073247BA97424798C3D24713DF070016
:10019800814F7ACEE24785073ECC62479D47E3F818
:1001A800E7F8F2473E850561828001112AC62EC410
:1001B80032C202CE02CC9DA8E2478A072247BA97EC
:1001C8009C433E888148E2478A071247BA979C4376
:1001D8003E83814333076840BA86B336D800B38775
:1001E8007840B386D740B6873A86BE86F2473E8EB9
:1001F800814E3307C641BA85B335B600B387D641B9
:10020800B386B740B6873AC83ECAE2478A0732473C
:10021800BA97424798C3D24713DF0700814FFA873E
:10022800B307F0403ECEE24785073ECC62479D4784
:10023800E3F4E7F8F2473E850561828001112AC69A
:100248002EC432C29247B307F0403ECC02CE1DA85E
:10025800F2478A073247BA979843E24793C7F7FFAE
:10026800B376F700F2478A072247BA979843E247DE
:100278007D8FF2478A073246B297558F98C3F24767
:1002880085073ECE72479D47E3F4E7FC0100010075
:100298000561828001112AC62EC402CE02CC15A0A7
:1002A800E2478A073247BA979843E2478A07A24645
:1002B800B6979C43B98F7247D98F3ECEE2478507E0
:1002C8003ECC62479D47E3FDE7FCF2473E8505616A
:1002D8008280397122DE26DC4ADA4ED82AC62EC43C
:1002E80032C236C0B2462317D102A2462316D10223
:1002F800B246C1822315D102A246C1822314D1027B
:100308000356E1028356C102B306D60236D203561B
:10031800A1028356C102B306D60236D00356E102C3
:1003280083568102B306D60236CE0356A1028356FF
:100338008102B306D60236CC925636888148825658
:1003480013D60601E2463696F246C182B296368741
:10035800814793130700014333076800BA86B3B691
:100368000601B3877800BE96B6873AC83ECA825758
:10037800C2073E8981494246D24633072601BA85DB
:10038800B3B5C500B3873601B386F500B6873AC85A
:100398003ECAF247C2073E8481444246D2463307EA
:1003A8008600BA85B3B5C500B3879600B386F50055
:1003B800B6873AC83ECA92473E8F814F4246D246D8
:1003C8003307E601BA85B3B5C500B387F601B3862E
:1003D800F500B6873AC83ECA82473E8E814E4246ED
:1003E800D2463307C601BA85B3B5C500B387D6016F
:1003F800B386F500B6873AC83ECA4247D2473A851F
:10040800BE857254E2545259C259216182801D71CD
:1004180086CEA2CCA6CACAC8CEC6D2C4D6C2DAC0B4
:100428005EDE2AC62EC432C202D602D43DA8A25726
:100438008A071247BA978C43A2578A073247BA9756
:100448009C43B2563E86224569352ACC2ECEA25709
:100458008A073247BA97624798C3F24713DB070007
:10046800814B5AD6A25785073ED422579D47E3F0C1
:10047800E7FCB247938707029C433E848144B25706
:100488003E89814933072401BA86B3B68600B3870B
:100498003401BE96B6873AD03ED2B2479387070258
:1004A800025798C3925713DA0700814A52D6B257B7
:1004B8003E85F6406644D6444649B649264A964A99
:1004C800064BF25B2561828001112AC62EC402CE3A
:1004D80039A8F24785078A0732473E97F2478A07C5
:1004E800B246B697184398C3F24785073ECE72477F
:1004F8009D47E3F0E7FEB24793870702224798C378
:1005080001000561828001112AC62EC402CEB1A85D
:100518001D47F247B307F7408A073ECC2247E24718
:10052800BA9783C7070013978701E2478507A24652
:10053800B69783C70700C2075D8FE2478907A246BF
:10054800B69783C70700A2075D8FE2478D07A246CB
:10055800B69783C707003E86F2478A07B246B69722
:10056800518F98C3F24785073ECE72479D47E3F106
:10057800E7FA01000100056182805D7186C62AC61E
:100588002EC432C236C01246A2453245513E2ADE3A
:1005980002475C083A86B2453E8501392ADC0547A0
:1005A800E257B307F7407257D98F3EDA5C085256C4
:1005B800BE85324561310100B6406161828001111A
:1005C80006CE2AC62EC432C2B7474A209386070EE3
:1005D8001246A245324555370100F2400561828036
:1005E8005D7186C62AC62EC432C236C01246A245DE
:1005F8003245653E2ADE02477C083A86B2453E858A
:1006080005367C087256BE8532450D390100B64064
:1006180061618280011106CE2AC62EC432C2B74754
:100628004A209386070E1246A2453245553F0100DF
:10063800F24005618280597186D62AC62EC432C21C
:1006480036C08247BC43BECA82CE19A8F6478A077D
:10065800938707068A9723AE07FAF6478507BECE23
:100668007647A147E3F4E7FE82CCA1A87247E647A4
:100678008A07A246B697944392479C43B387F602EB
:10068800BA975647B307F702BEC2E6478A0722471A
:10069800BA9798437C081246BA853E858D3BAAC016
:1006A80002477C083A8696453E8595332A878647D1
:1006B800BA97BEC07C0886453E853935E64785072A
:1006C800BECC66479D47E3F3E7FAF257BEC8024738
:1006D8007C083A86BE853245C93CAAC60547B64756
:1006E800B307F7404647D98FBEC40547A6471D8FB5
:1006F8007C083A86BE85324591360100B650656160
:100708008280011106CE2AC62EC432C2B7474A20BB
:100718009386070E1246A2453245313F0100F2404A
:1007280005618280011106CE2AC62EC4A24793878E
:100738000702A2463E86B2453245F53D0100F24029
:10074800056182805D7186C62AC62EC432C2A24562
:100758003245553B12477C083A86B2453E85B1344E
:100768002ADE725785476304F700FD5729A0924592
:1007780032454D3F81473E85B6406161828059715F
:1007880086D62AC62EC47C182246A2453E85953FA9
:100798007C083246B2453E85AD3778087C0832463B
:1007A800BA853E85B93F82CE11A878087C083246C2
:1007B800BA853E858535F6478507BECE7647894793
:1007C800E3F5E7FE74087808B7474A2013868716CA
:1007D800B6853A85ED3378087C18BA853E855D3C48
:1007E800AA873E85B65065618280797106D62AC689
:1007F8002EC432C2B7474A201386070E92453245A7
:1008080091372ACEF24799C3F24725A0924713871A
:100818000702B7474A201386070EBA8522451D37B7
:100828002ACEF24799C3F24729A0A2453245813F13
:10083800AA873E85B250456182805D7186C62AC608
:100848002EC4A2453245C1313808B7474A2013861D
:100858004712B2453A85913A2ADE3C0885453E85DD
:10086800EFF0DF8838083C083A86B2453E85353ACD
:100878002ADCF25789C7E25799E3814711A0FD574F
:100888003E85B64061618280597186D62AC678084D
:100898007C183246BA853E85893FAACEF64799E349
:1008A800814711A0F9573E85B650656182805D7118
:1008B80086C62AC67C08B2453E8541372ADE7C08B2
:1008C800930500023E85EF00D116F25799E3814760
:1008D80011A0F5573E85B6406161828041112AC654
:1008E800B24783D707003E8541018280397106DE11
:1008F8002ACE2ECC32CA36C83AC63EC442C2924725
:100908009C4391CB92479843930700106305F700E7
:100918009307A0F77DA07245D137AA872317F10264
:100928000357E1029167938727116319F70252472A
:1009380093071004630BF70092479C4381E79307E2
:10094800A0F741A0930790F7ADA8E24785073E8539
:10095800253FAA87B9C3930790F7A5A00357E102DB
:100968009D67938727116317F70252479307000281
:10097800630BF70092479C4381E79307A0F791A088
:10098800930790F73DA862451D37AA8799C7930733
:1009980090F705A89307A0F72DA09247130700101A
:1009A80098C33247D2476375F700930760F711A8D9
:1009B8005246E2454245EF10E26DA247524798C3BE
:1009C80081473E85F25021618280397106DE22DC42
:1009D8002AC68D473ED6B2578A073E87B247BA978E
:1009E8003ED292573ED0825703C7070083C61700EE
:1009F800A206558F83C62700C206558F83C73700C6
:100A0800E207D98F3ECEF2473E85EF00F258AA871B
:100A18003ED4A25785073ED4B2578A073E87B247CD
:100A28003384E7002255EF003257AA8722CC3ECA0A
:100A3800E2473EC8C24752471377F70F83C60700FD
:100A4800818A558F2380E700524721831377F70F58
:100A580083C61700818A558FA380E70052474183D8
:100A68001377F70F83C62700818A558F2381E70004
:100A78005247618383C63700818A558FA381E70077
:100A88000100A25799E7B25789C7B257FD173ED65A
:100A980099B70100F250625421618280011106CE9B
:100AA8002AC61306801181453245EF10A264010061
:100AB800F24005618280011106CE2AC6B24799C765
:100AC800930580113245EF00C17611A00100F24074
:100AD8000561828041112AC681473E854101828095
:100AE800397106DE2AC62EC432C212479307001097
:100AF800630AF70212479307001063E9E7021247F7
:100B0800930700086308F70012479307000C630770
:100B1800F70029A8B247294798C319A8B24731470F
:100B280098C339A0B247394798C319A0815761A122
:100B3800B247A1073E85793F2A87B247D8C3B24753
:100B480013878700B247DC438A07BA973ED602D498
:100B580089A0A2578A072247BA9722570A07B2568E
:100B680036973ECCE2473ECAD24783C6070003C643
:100B780017002206D18E03C627004206D18E83C7EE
:100B88003700E207D58F3EC8C2471CC3A257850766
:100B98003ED4924795832257E36DF7FAB2479C43B8
:100BA80039476389E72239476346F740294763860F
:100BB800E7003147638CE70EF5AE02D2DDA0B257ED
:100BC8009843B7574A20938687B892578A07B697AB
:100BD8009C43B98F32573107184321831377F70F96
:100BE800BA8637474A2013078718369703470700FE
:100BF8003D8FB257B1079C43C18393F7F70FBE8669
:100C0800B7474A2093878718B69783C70700A20774
:100C18003D8FB257B1079C43E18393F7F70FBE8628
:100C2800B7474A2093878718B69783C70700C20734
:100C3800B346F700B257B1079C4393F7F70F3E87C7
:100C4800B7474A2093878718BA9783C7070013972F
:100C58008701B257C107358F98C3B257910794439C
:100C6800B257C1079843B257D107358F98C3B257C7
:100C7800A1079443B257D1079843B257E107358F7C
:100C880098C3B257B1079443B257E1079843B25794
:100C9800F107358F98C3925785073ED2B257C107DF
:100CA8003ED61257A547E3FCE7F029A602D031AAA1
:100CB800B2579843B7574A20938687B882578A070E
:100CC800B6979C43B98F325751071843218313773E
:100CD800F70FBA8637474A2013078718369703470E
:100CE80007003D8FB257D1079C43C18393F7F70F95
:100CF800BE86B7474A2093878718B69783C70700E9
:100D0800A2073D8FB257D1079C43E18393F7F70FB2
:100D1800BE86B7474A2093878718B69783C70700C8
:100D2800C207B346F700B257D1079C4393F7F70FB2
:100D38003E87B7474A2093878718BA9783C7070023
:100D480013978701B257E107358F98C3B2579107B8
:100D58009443B257E1079843B257F107358F98C3C8
:100D6800B257A1079443B257F1079843B2579387F4
:100D78000702358F98C3B257B1079443B257938788
:100D880007029843B25793874702358F98C3B257E3
:100D9800C1079443B257938747029843B257938742
:100DA8008702358F98C3B257D1079443B2579387B8
:100DB80087029843B2579387C702358F98C38257E3
:100DC80085073ED0B257E1073ED602579D47E3F16B
:100DD800E7EECDA202CED1AAB2579843B7574A2020
:100DE800938687B8F2478A07B6979C43B98F3257DC
:100DF8007107184321831377F70FBA8637474A20BC
:100E0800130787183697034707003D8FB257F10736
:100E18009C43C18393F7F70FBE86B7474A20938751
:100E28008718B69783C70700A2073D8FB257F10707
:100E38009C43E18393F7F70FBE86B7474A20938711
:100E48008718B69783C70700C207B346F700B2579B
:100E5800F1079C4393F7F70F3E87B7474A209387DC
:100E68008718BA9783C7070013978701B2579387E4
:100E78000702358F98C3B25791079443B2579387A7
:100E880007029843B25793874702358F98C3B257E2
:100E9800A1079443B257938747029843B257938761
:100EA8008702358F98C3B257B1079443B2579387D7
:100EB80087029843B2579387C702358F98C3B257B2
:100EC800C1079C4332571307C70218431377F70F1C
:100ED800BA8637474A20130787183697034707000B
:100EE8003D8FB2579387C7029C43A18393F7F70FAF
:100EF800BE86B7474A2093878718B69783C70700E7
:100F0800A2073D8FB2579387C7029C43C18393F7CB
:100F1800F70FBE86B7474A2093878718B69783C7C7
:100F28000700C207B346F700B2579387C7029C432E
:100F3800E18393F7F70F3E87B7474A2093878718CF
:100F4800BA9783C7070013978701B2579387070398
:100F5800358F98C3B257D1079443B2579387070385
:100F68009843B25793874703358F98C3B257E10721
:100F78009443B257938747039843B257938787039D
:100F8800358F98C3B257F1079443B25793878703B5
:100F98009843B2579387C703358F98C3F24785079D
:100FA8003ECEB257938707023ED672479947E3F57C
:100FB800E7E2010081473E85F250216182804D7150
:100FC800232611142AC62EC432C25C083E85F93481
:100FD800B247A1073E85FD3C2A87B247D8C3B2472E
:100FE80013878700B247DC438A07BA97232CF1128C
:100FF8005C081246A2453E85E5342326A1128327C4
:10100800C112639D07225247B24798C36247D2472D
:101018008A07BA978A0758082107BA97232EF11228
:101028000327C11393074700232EF1128327811347
:1010380093864700232CD112184398C30327C11362
:1010480093074700232EF1128327811393864700C5
:10105800232CD112184398C30327C11393074700C1
:10106800232EF1128327811393864700232CD11254
:10107800184398C30327C11393074700232EF1127F
:101088008327811393864700232CD112184398C3D2
:101098008327C1138117232EF112B2479C43FD17F2
:1010A800232AF11239AA23280112EDA88327C11394
:1010B8009C4393F7F70F3E87B7474A2093878718D3
:1010C800BA9783C70700BE86B7474A201387877831
:1010D80093972600BA9798438327C1139C43A1830B
:1010E80093F7F70FBE86B7474A2093878718B697B6
:1010F80083C707003E86B7474A20938687789317A9
:101108002600B6979C4393968700E183D58F3D8F41
:101118008327C1139C43C18393F7F70FBE86B74754
:101128004A2093878718B69783C707003E86B74734
:101138004A209386877893172600B6979C43939600
:101148000701C183D58FB346F7008327C1139C439A
:10115800E18393F7F70F3E87B7474A2093878718AD
:10116800BA9783C707003E86B7474A201387877810
:1011780093172600BA979C4313D78700E207D98FA5
:101188000327811313064700232CC112B58F1CC3F4
:101198008327011385072328F1128327C113910799
:1011A800232EF112032701138D47E3D1E7F083279C
:1011B8004113FD17232AF1128327C1138117232E08
:1011C800F11283274113E340F0EE0327C11393077D
:1011D8004700232EF1128327811393864700232C7F
:1011E800D112184398C30327C11393074700232E2E
:1011F800F1128327811393864700232CD1121843B9
:1012080098C30327C11393074700232EF11283279E
:10121800811393864700232CD112184398C30327C0
:10122800C11393074700232EF11283278113938656
:101238004700232CD112184398C311A001005C0861
:101248003E85EFF05F878327C1123E858320C11456
:1012580071618280717106D72AC62EC432C2B24724
:1012680013878700B247DC438A07BA973ECFA24765
:10127800BED8C657BED6B65703C7070083C61700E1
:10128800A206558F83C62700C206558F83C737002D
:10129800E207D98FBED4A6573ECCFA47138747003A
:1012A8003ACF9843E247B98F3ECCA2479107BEDEBA
:1012B800F657BEDCE65703C7070083C61700A20629
:1012C800558F83C62700C206558F83C73700E207AC
:1012D800D98FBEDAD6573ECEFA47138747003ACFA2
:1012E8009843F247B98F3ECEA247A1073EC5AA4709
:1012F8003EC39A4703C7070083C61700A206558F47
:1013080083C62700C206558F83C73700E207D98FE7
:101318003EC18A473ED0FA47138747003ACF9843E1
:101328008257B98F3ED0A247B1073ECBDA473EC9B4
:10133800CA4703C7070083C61700A206558F83C68E
:101348002700C206558F83C73700E207D98F3EC7EB
:10135800BA473ED2FA47138747003ACF9843925785
:10136800B98F3ED2B2479C438587FD173ECD61A910
:10137800FA47138747003ACF9843E24793F7F70FA6
:101388003E86B7474A209386872893172600B69744
:101398009C433D8FF247A18393F7F70F3E86B747EB
:1013A8004A209386872893172600B6979C439396DE
:1013B8008700E183D58F3D8F8257C18393F7F70F5D
:1013C8003E86B7474A209386872893172600B69704
:1013D8009C4393960701C183D58F3D8F9257E18334
:1013E80093F7F70F3E86B7474A20938687289317C7
:1013F8002600B6979C4393D68700E207D58FB98F0E
:101408003ED4FA47138747003ACF9843F24793F7F9
:10141800F70F3E86B7474A209386872893172600FA
:10142800B6979C433D8F8257A18393F7F70F3E866B
:10143800B7474A209386872893172600B6979C4378
:1014480093968700E183D58F3D8F9257C18393F799
:10145800F70F3E86B7474A209386872893172600BA
:10146800B6979C4393960701C183D58F3D8FE2477A
:10147800E18393F7F70F3E86B7474A20938687287C
:1014880093172600B6979C4393D68700E207D58F1B
:10149800B98F3ED6FA47138747003ACF9843825709
:1014A80093F7F70F3E86B7474A2093868728931706
:1014B8002600B6979C433D8F9257A18393F7F70F69
:1014C8003E86B7474A209386872893172600B69703
:1014D8009C4393968700E183D58F3D8FE247C18374
:1014E80093F7F70F3E86B7474A20938687289317C6
:1014F8002600B6979C4393960701C183D58F3D8FED
:10150800F247E18393F7F70F3E86B7474A20938661
:10151800872893172600B6979C4393D68700E2073F
:10152800D58FB98F3ED8FA47138747003ACF9843EB
:10153800925793F7F70F3E86B7474A209386872836
:1015480093172600B6979C433D8FE247A18393F7F4
:10155800F70F3E86B7474A209386872893172600B9
:10156800B6979C4393968700E183D58F3D8FF247CA
:10157800C18393F7F70F3E86B7474A20938687289B
:1015880093172600B6979C4393960701C183D58F7E
:101598003D8F8257E18393F7F70F3E86B7474A207E
:1015A8009386872893172600B6979C4393D687007F
:1015B800E207D58FB98F3EDAFA47138747003ACF4B
:1015C8009843A25793F7F70F3E86B7474A2093866A
:1015D800872893172600B6979C433D8FB257A1835F
:1015E80093F7F70F3E86B7474A20938687289317C5
:1015F8002600B6979C4393968700E183D58F3D8F4D
:10160800C257C18393F7F70F3E86B7474A209386A0
:10161800872893172600B6979C4393960701C183A2
:10162800D58F3D8FD257E18393F7F70F3E86B747A3
:101638004A209386872893172600B6979C4393D60B
:101648008700E207D58FB98F3ECCFA47138747004A
:101658003ACF9843B25793F7F70F3E86B7474A20D9
:101668009386872893172600B6979C433D8FC257C9
:10167800A18393F7F70F3E86B7474A2093868728BA
:1016880093172600B6979C4393968700E183D58FDE
:101698003D8FD257C18393F7F70F3E86B7474A204D
:1016A8009386872893172600B6979C43939607013D
:1016B800C183D58F3D8FA257E18393F7F70F3E86FD
:1016C800B7474A209386872893172600B6979C43E6
:1016D80093D68700E207D58FB98F3ECEFA47138796
:1016E80047003ACF9843C25793F7F70F3E86B7475C
:1016F8004A209386872893172600B6979C433D8FE8
:10170800D257A18393F7F70F3E86B7474A209386AF
:10171800872893172600B6979C4393968700E18302
:10172800D58F3D8FA257C18393F7F70F3E86B747F2
:101738004A209386872893172600B6979C4393964A
:101748000701C183D58F3D8FB257E18393F7F70F18
:101758003E86B7474A209386872893172600B69770
:101768009C4393D68700E207D58FB98F3ED0FA47BE
:10177800138747003ACF9843D25793F7F70F3E861F
:10178800B7474A209386872893172600B6979C4325
:101798003D8FA257A18393F7F70F3E86B7474A209C
:1017A8009386872893172600B6979C4393968700BD
:1017B800E183D58F3D8FB257C18393F7F70F3E86EC
:1017C800B7474A209386872893172600B6979C43E5
:1017D80093960701C183D58F3D8FC257E18393F755
:1017E800F70F3E86B7474A20938687289317260027
:1017F800B6979C4393D68700E207D58FB98F3ED220
:10180800EA47FD173ECDEA47E344F0B6FA471387A7
:1018180047003ACF9843E24793F7F70F3E86B7471A
:101828004A209386872893172600B6979C433D8FB6
:10183800F247A18393F7F70F3E86B7474A2093866E
:10184800872893172600B6979C4393968700E183D1
:10185800D58F3D8F8257C18393F7F70F3E86B747E1
:101868004A209386872893172600B6979C43939619
:101878000701C183D58F3D8F9257E18393F7F70F07
:101888003E86B7474A209386872893172600B6973F
:101898009C4393D68700E207D58FB98F3ED4FA4789
:1018A800138747003ACF9843F24793F7F70F3E86DE
:1018B800B7474A209386872893172600B6979C43F4
:1018C8003D8F8257A18393F7F70F3E86B7474A208B
:1018D8009386872893172600B6979C43939687008C
:1018E800E183D58F3D8F9257C18393F7F70F3E86DB
:1018F800B7474A209386872893172600B6979C43B4
:1019080093960701C183D58F3D8FE247E18393F713
:10191800F70F3E86B7474A209386872893172600F5
:10192800B6979C4393D68700E207D58FB98F3ED6EA
:10193800FA47138747003ACF9843825793F7F70F30
:101948003E86B7474A209386872893172600B6977E
:101958009C433D8F9257A18393F7F70F3E86B74775
:101968004A209386872893172600B6979C43939618
:101978008700E183D58F3D8FE247C18393F7F70F47
:101988003E86B7474A209386872893172600B6973E
:101998009C4393960701C183D58F3D8FF247E1831E
:1019A80093F7F70F3E86B7474A2093868728931701
:1019B8002600B6979C4393D68700E207D58FB98F48
:1019C8003ED8FA47138747003ACF9843925793F780
:1019D800F70F3E86B7474A20938687289317260035
:1019E800B6979C433D8FE247A18393F7F70F3E8656
:1019F800B7474A209386872893172600B6979C43B3
:101A080093968700E183D58F3D8FF247C18393F783
:101A1800F70F3E86B7474A209386872893172600F4
:101A2800B6979C4393960701C183D58F3D8F825704
:101A3800E18393F7F70F3E86B7474A2093868728B6
:101A480093172600B6979C4393D68700E207D58F55
:101A5800B98F3EDAFA47138747003ACF9C4322579B
:101A68001377F70FBA8637474A2013078718369730
:101A7800034707003D8FB257A18393F7F70FBE8640
:101A8800B7474A2093878718B69783C70700A207E6
:101A98003D8FC257C18393F7F70FBE86B7474A20D9
:101AA80093878718B69783C70700C2073D8FD25719
:101AB800E18393F7F70FBE86B7474A2093878718C5
:101AC800B69783C70700E207B98F3ECCFA4713875A
:101AD80047003ACF9C4332571377F70FBA863747F8
:101AE8004A20130787183697034707003D8FC257C8
:101AF800A18393F7F70FBE86B7474A2093878718C5
:101B0800B69783C70700A2073D8FD257C18393F7C3
:101B1800F70FBE86B7474A2093878718B69783C7BB
:101B28000700C2073D8FA257E18393F7F70FBE86E0
:101B3800B7474A2093878718B69783C70700E207F5
:101B4800B98F3ECEFA47138747003ACF9C43425796
:101B58001377F70FBA8637474A201307871836973F
:101B6800034707003D8FD257A18393F7F70FBE862F
:101B7800B7474A2093878718B69783C70700A207F5
:101B88003D8FA257C18393F7F70FBE86B7474A2008
:101B980093878718B69783C70700C2073D8FB25748
:101BA800E18393F7F70FBE86B7474A2093878718D4
:101BB800B69783C70700E207B98F3ED0FA47138765
:101BC80047003ACF9C4352571377F70FBA863747E7
:101BD8004A20130787183697034707003D8FA257F7
:101BE800A18393F7F70FBE86B7474A2093878718D4
:101BF800B69783C70700A2073D8FB257C18393F7F3
:101C0800F70FBE86B7474A2093878718B69783C7CA
:101C18000700C2073D8FC257E18393F7F70FBE86CF
:101C2800B7474A2093878718B69783C70700E20704
:101C3800B98F3ED2E2471247BAD2BED09657BECE2F
:101C4800F64706571377F70F83C60700818A558F23
:101C58002380E700065721831377F70F83C6170001
:101C6800818A558FA380E700065741831377F70FC2
:101C780083C62700818A558F2381E7000657618331
:101C880083C63700818A558FA381E70001009247F8
:101C980013874700F247BACCBECAE647BEC8C64754
:101CA80056471377F70F83C60700818A558F23801D
:101CB800E700564721831377F70F83C61700818AF9
:101CC800558FA380E700564741831377F70F83C6E4
:101CD8002700818A558F2381E7005647618383C691
:101CE8003700818A558FA381E70001009247138747
:101CF80087008257BAC6BEC4B647BEC296472647B3
:101D08001377F70F83C60700818A558F2380E70072
:101D1800264721831377F70F83C61700818A558FCB
:101D2800A380E700264741831377F70F83C6270070
:101D3800818A558F2381E7002647618383C6370050
:101D4800818A558FA381E700010092471387C70056
:101D58009257BAC03EDE86473EDCE2577257137789
:101D6800F70F83C60700818A558F2380E7007257D3
:101D780021831377F70F83C61700818A558FA380B5
:101D8800E700725741831377F70F83C62700818ACC
:101D9800558F2381E7007257618383C63700818A94
:101DA800558FA381E70001003C08930500023E859A
:101DB800EFF0204881473E85BA504D6182807171AD
:101DC80006D72AC62EC432C2B24713878700B24745
:101DD800DC438A07BA973ECFA247BED8C657BED6BD
:101DE800B65703C7070083C61700A206558F83C6D8
:101DF8002700C206558F83C73700E207D98FBED4A4
:101E0800A6573ECCFA47138747003ACF9843E24794
:101E1800B98F3ECCA2479107BEDEF657BEDCE65727
:101E280003C7070083C61700A206558F83C627007D
:101E3800C206558F83C73700E207D98FBEDAD65757
:101E48003ECEFA47138747003ACF9843F247B98FF7
:101E58003ECEA247A1073EC5AA473EC39A4703C73D
:101E6800070083C61700A206558F83C62700C2063F
:101E7800558F83C73700E207D98F3EC18A473ED0C6
:101E8800FA47138747003ACF98438257B98F3ED015
:101E9800A247B1073ECBDA473EC9CA4703C7070086
:101EA80083C61700A206558F83C62700C206558F22
:101EB80083C73700E207D98F3EC7BA473ED2FA47F1
:101EC800138747003ACF98439257B98F3ED2B2470B
:101ED8009C438587FD173ECD61A9FA4713874700C4
:101EE8003ACF9843E24793F7F70F3E86B7474A2021
:101EF8009386877893172600B6979C433D8F925711
:101F0800A18393F7F70F3E86B7474A2093868778D1
:101F180093172600B6979C4393968700E183D58F45
:101F28003D8F8257C18393F7F70F3E86B7474A2004
:101F38009386877893172600B6979C439396070154
:101F4800C183D58F3D8FF247E18393F7F70F3E8624
:101F5800B7474A209386877893172600B6979C43FD
:101F680093D68700E207D58FB98F3ED4FA471387F7
:101F780047003ACF9843F24793F7F70F3E86B747A3
:101F88004A209386877893172600B6979C433D8FFF
:101F9800E247A18393F7F70F3E86B7474A20938617
:101FA800877893172600B6979C4393968700E1831A
:101FB800D58F3D8F9257C18393F7F70F3E86B7476A
:101FC8004A209386877893172600B6979C43939662
:101FD8000701C183D58F3D8F8257E18393F7F70FB0
:101FE8003E86B7474A209386877893172600B69788
:101FF8009C4393D68700E207D58FB98F3ED6FA4720
:10200800138747003ACF9843825793F7F70F3E86D6
:10201800B7474A209386877893172600B6979C433C
:102028003D8FF247A18393F7F70F3E86B7474A20C3
:102038009386877893172600B6979C4393968700D4
:10204800E183D58F3D8FE247C18393F7F70F3E8633
:10205800B7474A209386877893172600B6979C43FC
:1020680093960701C183D58F3D8F9257E18393F7EC
:10207800F70F3E86B7474A2093868778931726003E
:10208800B6979C4393D68700E207D58FB98F3ED881
:10209800FA47138747003ACF9843925793F7F70FB9
:1020A8003E86B7474A209386877893172600B697C7
:1020B8009C433D8F8257A18393F7F70F3E86B7471E
:1020C8004A209386877893172600B6979C43939661
:1020D8008700E183D58F3D8FF247C18393F7F70FD0
:1020E8003E86B7474A209386877893172600B69787
:1020F8009C4393960701C183D58F3D8FE247E183C7
:1021080093F7F70F3E86B7474A2093868778931749
:102118002600B6979C4393D68700E207D58FB98FE0
:102128003EDAFA47138747003ACF9843A25793F706
:10213800F70F3E86B7474A2093868778931726007D
:10214800B6979C433D8FD257A18393F7F70F3E86EE
:10215800B7474A209386877893172600B6979C43FB
:1021680093968700E183D58F3D8FC257C18393F73C
:10217800F70F3E86B7474A2093868778931726003D
:10218800B6979C4393960701C183D58F3D8FB2576D
:10219800E18393F7F70F3E86B7474A2093868778FF
:1021A80093172600B6979C4393D68700E207D58FEE
:1021B800B98F3ECCFA47138747003ACF9843B257B6
:1021C80093F7F70F3E86B7474A2093868778931789
:1021D8002600B6979C433D8FA257A18393F7F70F2C
:1021E8003E86B7474A209386877893172600B69786
:1021F8009C4393968700E183D58F3D8FD257C18347
:1022080093F7F70F3E86B7474A2093868778931748
:102218002600B6979C4393960701C183D58F3D8FBF
:10222800C257E18393F7F70F3E86B7474A20938654
:10223800877893172600B6979C4393D68700E207C2
:10224800D58FB98F3ECEFA47138747003ACF9843C8
:10225800C25793F7F70F3E86B7474A209386877889
:1022680093172600B6979C433D8FB257A18393F7E7
:10227800F70F3E86B7474A2093868778931726003C
:10228800B6979C4393968700E183D58F3D8FA257DD
:10229800C18393F7F70F3E86B7474A20938687781E
:1022A80093172600B6979C4393960701C183D58F51
:1022B8003D8FD257E18393F7F70F3E86B7474A2001
:1022C8009386877893172600B6979C4393D6870002
:1022D800E207D58FB98F3ED0FA47138747003ACF28
:1022E8009843D25793F7F70F3E86B7474A2093860D
:1022F800877893172600B6979C433D8FC257A183D2
:1023080093F7F70F3E86B7474A2093868778931747
:102318002600B6979C4393968700E183D58F3D8F1F
:10232800B257C18393F7F70F3E86B7474A20938683
:10233800877893172600B6979C4393960701C18325
:10234800D58F3D8FA257E18393F7F70F3E86B747A6
:102358004A209386877893172600B6979C4393D68E
:102368008700E207D58FB98F3ED2EA47FD173ECDE9
:10237800EA47E344F0B6FA47138747003ACF984351
:10238800E24793F7F70F3E86B7474A209386877848
:1023980093172600B6979C433D8F9257A18393F7D6
:1023A800F70F3E86B7474A2093868778931726000B
:1023B800B6979C4393968700E183D58F3D8F8257CC
:1023C800C18393F7F70F3E86B7474A2093868778ED
:1023D80093172600B6979C4393960701C183D58F20
:1023E8003D8FF247E18393F7F70F3E86B7474A20C0
:1023F8009386877893172600B6979C4393D68700D1
:10240800E207D58FB98F3ED4FA47138747003ACFF2
:102418009843F24793F7F70F3E86B7474A209386CB
:10242800877893172600B6979C433D8FE247A18390
:1024380093F7F70F3E86B7474A2093868778931716
:102448002600B6979C4393968700E183D58F3D8FEE
:102458009257C18393F7F70F3E86B7474A20938672
:10246800877893172600B6979C4393960701C183F4
:10247800D58F3D8F8257E18393F7F70F3E86B74795
:102488004A209386877893172600B6979C4393D65D
:102498008700E207D58FB98F3ED6FA4713874700E2
:1024A8003ACF9843825793F7F70F3E86B7474A20AB
:1024B8009386877893172600B6979C433D8FF247FB
:1024C800A18393F7F70F3E86B7474A20938687780C
:1024D80093172600B6979C4393968700E183D58F80
:1024E8003D8FE247C18393F7F70F3E86B7474A20EF
:1024F8009386877893172600B6979C43939607018F
:10250800C183D58F3D8F9257E18393F7F70F3E86AE
:10251800B7474A209386877893172600B6979C4337
:1025280093D68700E207D58FB98F3ED8FA4713872D
:1025380047003ACF9843925793F7F70F3E86B7472D
:102548004A209386877893172600B6979C433D8F39
:102558008257A18393F7F70F3E86B7474A209386A1
:10256800877893172600B6979C4393968700E18354
:10257800D58F3D8FF247C18393F7F70F3E86B74754
:102588004A209386877893172600B6979C4393969C
:102598000701C183D58F3D8FE247E18393F7F70F9A
:1025A8003E86B7474A209386877893172600B697C2
:1025B8009C4393D68700E207D58FB98F3EDAFA4756
:1025C800138747003ACF9C4322571377F70FBA86F1
:1025D80037474A20130787683697034707003D8F18
:1025E800D257A18393F7F70FBE86B7474A20938740
:1025F8008768B69783C70700A2073D8FC257C18374
:1026080093F7F70FBE86B7474A2093878768B69730
:1026180083C70700C2073D8FB257E18393F7F70FCF
:10262800BE86B7474A2093878768B69783C707004F
:10263800E207B98F3ECCFA47138747003ACF9C434D
:1026480032571377F70FBA8637474A201307876838
:102658003697034707003D8FA257A18393F7F70FDB
:10266800BE86B7474A2093878768B69783C707000F
:10267800A2073D8FD257C18393F7F70FBE86B7479E
:102688004A2093878768B69783C70700C2073D8F9C
:10269800C257E18393F7F70FBE86B7474A2093875F
:1026A8008768B69783C70700E207B98F3ECEFA4717
:1026B800138747003ACF9C4342571377F70FBA86E0
:1026C80037474A20130787683697034707003D8F27
:1026D800B257A18393F7F70FBE86B7474A2093876F
:1026E8008768B69783C70700A2073D8FA257C183A3
:1026F80093F7F70FBE86B7474A2093878768B69740
:1027080083C70700C2073D8FD257E18393F7F70FBE
:10271800BE86B7474A2093878768B69783C707005E
:10272800E207B98F3ED0FA47138747003ACF9C4358
:1027380052571377F70FBA8637474A201307876827
:102748003697034707003D8FC257A18393F7F70FCA
:10275800BE86B7474A2093878768B69783C707001E
:10276800A2073D8FB257C18393F7F70FBE86B747CD
:102778004A2093878768B69783C70700C2073D8FAB
:10278800A257E18393F7F70FBE86B7474A2093878E
:102798008768B69783C70700E207B98F3ED2E2473A
:1027A8001247BAD2BED09657BECEF6470657137711
:1027B800F70F83C60700818A558F2380E7000657E5
:1027C80021831377F70F83C61700818A558FA3805B
:1027D800E700065741831377F70F83C62700818ADE
:1027E800558F2381E7000657618383C63700818AA6
:1027F800558FA381E7000100924713874700F247EE
:10280800BACCBECAE647BEC8C64756471377F70FC5
:1028180083C60700818A558F2380E70056472183A6
:102828001377F70F83C61700818A558FA380E700B7
:10283800564741831377F70F83C62700818A558F40
:102848002381E7005647618383C63700818A558F05
:10285800A381E70001009247138787008257BAC611
:10286800BEC4B647BEC2964726471377F70F83C63E
:102878000700818A558F2380E70026472183137735
:10288800F70F83C61700818A558FA380E700264774
:1028980041831377F70F83C62700818A558F2381D9
:1028A800E7002647618383C63700818A558FA38155
:1028B800E700010092471387C7009257BAC03EDE6F
:1028C80086473EDCE25772571377F70F83C6070037
:1028D800818A558F2380E700725721831377F70F7A
:1028E80083C61700818A558FA380E70072574183FA
:1028F8001377F70F83C62700818A558F2381E70056
:102908007257618383C63700818A558FA381E70098
:1029180001003C08930500023E85EFE090118147D5
:102928003E85BA504D618280011106CE2AC62EC45A
:1029380032C236C0224785476307F700A24781C7DE
:102948009307F0FD05A0A24781EB02469245324568
:10295800EFF0EFC6AA8739A0024692453245EFE06C
:102968007F8FAA873E85F240056182801D7186CEE1
:102978002ACE2ECC32CA36C83AC63EC442C29307C3
:1029880020F9BEC6D2479C43BEC42647BD4763F55F
:10299800E7009307F0FDE1A082C255A0C147BEC081
:1029A800A64789EFB246424685457245B53FAAC655
:1029B800B647C5E74245EFE04F8131A00647A64735
:1029C800B307F740BEC062479647B307F7400647CC
:1029D80063F7E70062479647B307F740BEC0124760
:1029E8009647B306F700224796473E973246A647D2
:1029F800B29736DE3ADC3EDA86473ED802D635A0B4
:102A08006257B257BA9783C607005257B257BA9758
:102A180003C707007256B257B297358F1377F70F6F
:102A28002380E700B25785073ED64257B257E3E9FD
:102A3800E7FC010082C416478647BA97BEC216470C
:102A4800E247E36DF7F4D2479843E247BA9713F7A2
:102A5800F700D24798C382C611A00100B6473E8549
:102A6800F6402561828001112AC62EC432C236C0C2
:102A7800A2479C433ECEB2479843A24798C3F24729
:102A880013970701C183D98F32471CC382479C43E0
:102A980013970701C183D98F3ECC92479C4313D724
:102AA8008700B707FF009387F70F7D8F92479C43F6
:102AB80093968700B70701FF938707F0F58F5D8F1F
:102AC800824798C3E24713D78700B707FF00938769
:102AD800F70F7D8FE24793968700B70701FF93872B
:102AE80007F0F58F5D8F924798C382479C437247E2
:102AF800B98F3ECEA2479C4313970701C183D98F54
:102B08003ECAF24713D78700B707FF009387F70F2E
:102B18007D8FF24793968700B70701FF938707F0E9
:102B2800F58F5D8FD2473D8F92479C43B98F3ECE3C
:102B380082479C4313970701C183D98F6247B98F96
:102B48003ECCB2479C4313D78700B707FF00938753
:102B5800F70F7D8FB2479C4393968700B70701FF15
:102B6800938707F0F58FD98F5247B98F3ECAA2478E
:102B78009843F246E247B58F3D8FA24798C3E24794
:102B880013970701C183D98F7247B98F3ECCB247DB
:102B98009843E24793D68700B707FF009387F70F5C
:102BA800FD8EE24713968700B70701FF938707F06A
:102BB800F18FD58F3D8FB24798C3F247139707011E
:102BC800C183D98F3ECE82479843F24793D6870078
:102BD800B707FF009387F70FFD8EF247139687001C
:102BE800B70701FF938707F0F18FDD8ED247B58FC6
:102BF8003D8F824798C3D24713970701C183D98F66
:102C08003ECA92479843D24793D68700B707FF003A
:102C18009387F70FFD8ED24713968700B70701FFFA
:102C2800938707F0F18FDD8EF247B58F3D8F92477E
:102C380098C301000561828001112ACE2ECC32CAC8
:102C480036C83AC63EC442C246C0F2479C4393F7D0
:102C5800F70F3E87B247BA9783C707003E87F24708
:102C68009C43A18393F7F70FBE86A247B69783C705
:102C78000700A2073D8FF2479C43C18393F7F70FE4
:102C8800BE869247B69783C70700C2073D8FF247B3
:102C98009C43E18393F7F70FBE868247B69783C7B5
:102CA8000700E2073D8FF24798C3E2479C4393F73A
:102CB800F70F3E87B247BA9783C707003E87E247B8
:102CC8009C43A18393F7F70FBE86A247B69783C7A5
:102CD8000700A2073D8FE2479C43C18393F7F70F94
:102CE800BE869247B69783C70700C2073D8FE24763
:102CF8009C43E18393F7F70FBE868247B69783C755
:102D08000700E2073D8FE24798C3D2479C4393F7F9
:102D1800F70F3E87B247BA9783C707003E87D24767
:102D28009C43A18393F7F70FBE86A247B69783C744
:102D38000700A2073D8FD2479C43C18393F7F70F43
:102D4800BE869247B69783C70700C2073D8FD24712
:102D58009C43E18393F7F70FBE868247B69783C7F4
:102D68000700E2073D8FD24798C3C2479C4393F7B9
:102D7800F70F3E87B247BA9783C707003E87C24717
:102D88009C43A18393F7F70FBE86A247B69783C7E4
:102D98000700A2073D8FC2479C43C18393F7F70FF3
:102DA800BE869247B69783C70700C2073D8FC247C2
:102DB8009C43E18393F7F70FBE868247B69783C794
:102DC8000700E2073D8FC24798C301000561828072
:102DD800797106D62AC62EC432C236C0A247984395
:102DE80092479C43B98F3ECEA2479107984392479A
:102DF80091079C43B98F3ECCA247A10798439247BD
:102E0800A1079C43B98F3ECAA247B107984392478E
:102E1800B1079C43B98F3EC8140850082C086808AD
:102E2800B7574A20938807EBB7574A20138807DB20
:102E3800B7574A20938707CB37574A20130707BB52
:102E4800E53B1408500838087C08BA853E852139C6
:102E580082479843F2473D8FB24798C3824791070C
:102E680094436247B2479107358F98C38247A107B9
:102E780094435247B247A107358F98C38247B10799
:102E880094434247B247B107358F98C30100B25007
:102E980045618280797106D62AC62EC432C236C0F0
:102EA800A247984392479C43B98F3ECEA2479107C9
:102EB8009843924791079C43B98F3ECCA247A107FC
:102EC80098439247A1079C43B98F3ECAA247B107CE
:102ED80098439247B1079C43B98F3EC814085008DD
:102EE8002C086808B7574A20938807CBB7574A2059
:102EF800138807BBB7574A20938707EB37574A20F1
:102F0800130707DB153B1408500838087C08BA85F6
:102F18003E85913E82479843F2473D8FB24798C31A
:102F28008247910794436247B2479107358F98C308
:102F38008247A10794435247B247A107358F98C3E8
:102F48008247B10794434247B247B107358F98C3C8
:102F58000100B25045618280797106D62AC62EC416
:102F680032C2B687A301F10083473100FD8BA30B62
:102F7800F1008347710191CB834771013E87930725
:102F88000002998F93F7F70F11A08147230BF100E7
:102F980083473100958393F7F70F8D8B230FF1004B
:102FA8008347E1018A071247BA979C433E85EFE0C1
:102FB800A17EAA873ECCA30F010049A08347E10167
:102FC800138717009357F741F9833E970D8BB30783
:102FD800F740230FF1008347E1018A071247BA97A8
:102FE8009C433E85EFE0417BAA873EC88347710139
:102FF8006247B317F7003ECC834761014247B35796
:10300800F7006247D98F3ECC6245EFE0E178AA87A6
:103018003ECC8347F1018A072247BA9794438347F6
:10302800F1018A073247BA976247358F98C3C2477A
:103038003ECC8347F1018507A30FF1000347F10157
:103048008D47E3FDE7F601000100B250456182803B
:10305800117186DF2AC62EC432C2B7574A20938719
:1030680007FB03AF070083AE470003AE870003A347
:10307800C70083A8070103A84701884FCC4F905386
:10308800D4539857DC57FACCF6CEF2D09AD2C6D49D
:10309800C2D6AAD8AEDAB2DCB6DE3AC13EC312470F
:1030A80093070008630FF70012479307000C630AA1
:1030B800F7001247930700106305F700930740FADB
:1030C800C5ACA247BEC18E473EDFFA5703C707000B
:1030D80083C61700A206558F83C62700C206558FE0
:1030E80083C73700E207D98F3EDDEA573ECCA247B7
:1030F8009107BEC7BE47BEC5AE4703C7070083C614
:103108001700A206558F83C62700C206558F83C7AE
:103118003700E207D98FBEC39E473ECEA247A1071C
:10312800BECDEE47BECBDE4703C7070083C61700F8
:10313800A206558F83C62700C206558F83C737005E
:10314800E207D98FBEC9CE473ED0A247B107BED34A
:103158009E57BED18E5703C7070083C61700A20625
:10316800558F83C62700C206558F83C73700E207ED
:10317800D98FBECFFE473ED23C08C10741468145A4
:103188003E85EFE0317712479307F00B63F0E706CF
:10319800A247C1073ED5AA573ED39A5703C707008F
:1031A80083C61700A206558F83C62700C206558F0F
:1031B80083C73700E207D98F3ED18A573ED4A2474A
:1031C800D1073EDBDA573ED9CA5703C7070083C683
:1031D8001700A206558F83C62700C206558F83C7DE
:1031E8003700E207D98F3ED7BA573ED61247930722
:1031F80000106310F706A247E1073EC9CA473EC759
:10320800BA4703C7070083C61700A206558F83C6AF
:103218002700C206558F83C73700E207D98F3EC5FE
:10322800AA473ED8A247F1073ECFFA473ECDEA4724
:1032380003C7070083C61700A206558F83C6270059
:10324800C206558F83C73700E207D98F3ECBDA47CE
:103258003EDA9247938707F89983BED7BE579907F6
:1032680093F7F70F860713F7F70FB2472380E700A6
:10327800B808BE5792073306F7003C089386070143
:1032880038083C08C107BA853E8599363E578547B8
:1032980063C5E700BE57850711A08147BED7B808A8
:1032A800BE5792073306F70034083C081387070116
:1032B8003C0893870702BA853E85E93E3E57854715
:1032C80063C5E700BE57850711A08147BED7B80878
:1032D800BE5792073306F7003C08938607013C085F
:1032E800138707023C0893870703BA853E85CD34C8
:1032F80082D749A8BE5785078D8B38089207BA9799
:10330800BED5BE5792073247BA971385470038088B
:10331800BE579207BA979306D0062E56BE852D390A
:10332800BE57910792073247BA9713854700380866
:10333800BE579207BA97930610062E56BE852939AE
:10334800BE57A10792073247BA9713854700380836
:10335800BE579207BA979306D0032E56BE85ED3E08
:10336800BE57B10792073247BA9713854700380806
:10337800BE579207BA97FD462E56BE85F13EBE57F8
:103388008507BED73E578D47E3D6E7F6B247138782
:1033980047103C08138607013C08CD46BE853A8590
:1033A800653E3C08930500043E85EFD09068814750
:1033B8003E85FE5011618280397106DE2AC62EC410
:1033C80032C21246A245324561312AD0825799C38A
:1033D8008257D9A802D6B24783C707003ED4B5A002
:1033E80002D291A83247B257939627009257B697C0
:1033F8008A07BA97DC433ECE3247A25793962700F6
:103408009257B6978A07BA97D843B246B2571396D7
:1034180027009257B2978A07B697D8C33247A25760
:10342800939627009257B6978A07BA977247D8C3D8
:10343800925785073ED212578D47E3D5E7FAB25720
:1034480085073ED6A257FD173ED43257A257E34907
:10345800F7F885473ED689A0B25792073247BA9700
:1034680013854700B257920791073247BA97938559
:103478004700B2579207A1073247BA971386470009
:10348800B2579207B1073247BA979107BE86EFF055
:103498008FDDB25785073ED6B24783C707003E8700
:1034A800B257E3CBE7FA81473E85F250216182802B
:1034B800357106CF2AC62EC432C2A247BED296574D
:1034C800BED0865703C7070083C61700A206558FCC
:1034D80083C62700C206558F83C73700E207D98FF6
:1034E800BECEF6473ED4A2479107BED8C657BED631
:1034F800B65703C7070083C61700A206558F83C6B1
:103508002700C206558F83C73700E207D98FBED47C
:10351800A6573ED2A247A107BEDEF657BEDCE65745
:1035280003C7070083C61700A206558F83C6270066
:10353800C206558F83C73700E207D98FBEDAD65740
:103548003ED0A247B1073EC5AA473EC39A4703C724
:10355800070083C61700A206558F83C62700C20638
:10356800558F83C73700E207D98F3EC18A473ECEC1
:1035780002C73247BA479207BA97D843A257B98FBA
:103588003ED43247BA479207BA9798479257B98FAD
:103598003ED23247BA479207BA97D8478257B98F6F
:1035A8003ED03247BA479207BA97984BF247B98F3D
:1035B8003ECEBA4785073EC7740810104C10281035
:1035C800B7574A20938807EBB7574A20138807DB79
:1035D800B7574A20938707CB37574A20130707BBAB
:1035E800EFF08FE57408101058103C10BA853E852E
:1035F800EFF06FC73247BA479207BA97D843A25736
:10360800B98F3ED43247BA479207BA97984792572C
:10361800B98F3ED23247BA479207BA97D8478257EE
:10362800B98F3ED03247BA479207BA97984BF247BC
:10363800B98F3ECEBA4785073EC7740810104C10A4
:103648002810B7574A20938807CBB7574A201388C2
:1036580007BBB7574A20938707EB37574A2013070A
:1036680007DBEFF06FDDB24783C707003E87BA4735
:1036780063DBE7007408101058103C10BA853E85CB
:10368800EFF06FBEFDB501003247BA479207BA970F
:10369800D843A257B98F3ED43247BA479207BA9750
:1036A80098479257B98F3ED23247BA479207BA978E
:1036B800D8478257B98F3ED03247BA479207BA9750
:1036C800984BF247B98F3ECEA2571247BACCBECA22
:1036D800E647BEC8C64756471377F70F83C60700A5
:1036E800818A558F2380E700564721831377F70F88
:1036F80083C61700818A558FA380E7005647418308
:103708001377F70F83C62700818A558F2381E70037
:103718005647618383C63700818A558FA381E700A6
:1037280001009247138747009257BAC6BEC4B647EE
:10373800BEC2964726471377F70F83C60700818ACC
:10374800558F2380E700264721831377F70F83C619
:103758001700818A558FA380E70026474183137796
:10376800F70F83C62700818A558F2381E7002647F4
:10377800618383C63700818A558FA381E7000100E2
:103788009247138787008257BAC03EDE86473EDCE1
:10379800E25772571377F70F83C60700818A558F50
:1037A8002380E700725721831377F70F83C617002A
:1037B800818A558FA380E700725741831377F70FEB
:1037C80083C62700818A558F2381E700725761835A
:1037D80083C63700818A558FA381E700010092478D
:1037E8001387C700F2473ADA3ED8D2573ED6B257C7
:1037F80042571377F70F83C60700818A558F2380B6
:10380800E700425721831377F70F83C61700818A91
:10381800558FA380E700425741831377F70F83C67C
:103828002700818A558F2381E7004257618383C629
:103838003700818A558FA381E700010081473E85C3
:10384800FA400D618280011106CE2AC61306401186
:1038580081453245EFE0110A0100F240056182809E
:10386800011106CE2AC6B24799C7930540113245C1
:10387800EFD0301C11A00100F2400561828039713F
:1038880006DE2ACE2ECC32CA36C83AC63EC442C25A
:10389800D2479C433ED42257BD4763F6E7089307B7
:1038A80040FA59A8A25795EF3246C24572450931E8
:1038B800C1473ED615A0B257FD174247BA9703C76E
:1038C800070005071377F70F2380E70083C7070072
:1038D80081EBB257FD173ED6B257E34EF0FC11A06C
:1038E8000100A247138717003AC483C707003ED2D6
:1038F8009257139787016187B246A257B69783C735
:103908000700E207E187B98F93968701E18692471E
:10391800138717003AC213F7F60F2380E700A25760
:103928008507BD8B3ED4E2471387F7FF3ACCBDFB32
:10393800D247225798C381473E85F2502161828041
:1039480041112AC6B2473EC6B2473E854101828030
:10395800797106D62AC63245E5372ACEF2473307AB
:10396800F040F2478583B307F040D98F3ECCE24759
:10397800FD833ECCE247B307F0403E85B250456137
:103988008280797106D62AC62EC432C232454D3F8E
:10399800AA8793C7F7FF3ECE3247A2477D8FF246EC
:1039A8009247F58FD98F3E85B250456182800111CB
:1039B80006CE2AC62EC432C21246A2453245D13797
:1039C800AA873E85F2400561828041112AC62EC42D
:1039D8003247A247F98F3E854101828041112AC6AC
:1039E800B24793C7F7FF3E8541018280011106CE99
:1039F8002AC6AE8732872315F100BA872314F1004F
:103A08008317A10085073E878317810085073E86B7
:103A1800BA853245693FAA87C207C183FD17C20725
:103A2800C183C207C1873E85F240056182807971F2
:103A380006D622D42AC62EC4B287A303F10002CC2C
:103A4800A24783D76700BE853245F5282ACCE247CE
:103A5800C9E7834771003E85E53D2ACAA247039717
:103A68004700B247839747003E86BA855245BD3F17
:103A7800AA873E87B2472392E700B2479843A247F6
:103A88008C43A24783D76700D2463E863A85EF101B
:103A9800D06C5245A1372AC8A24783D767003ECECB
:103AA8002DA0B2479843F2478A07BA979443B24782
:103AB8009843F2478A073304F700B6854245313701
:103AC800AA871CC0F24785073ECEB24783D7670056
:103AD8003E87F247E3E7E7FC0100E2473E85B25044
:103AE80022544561828041112AC6B2470547239274
:103AF800E700B24723930700B24723A0070001005D
:103B080041018280011106CE2AC6B2478DCBB24749
:103B18009C4399CBB2479843B24783D767008A073B
:103B2800BE853A85EFD08075B24705472392E700F6
:103B3800B24723930700B24723A0070011A0010052
:103B4800F24005618280797106D62AC62EC42247C2
:103B580089679387077163F4E700C157ADA0B2473F
:103B680083D767003E87A247637EF70491452245C5
:103B7800EFE0013CAA873ECEF24799E3C157A1A0E6
:103B8800B2479C4395C7B2479843B24783D767006B
:103B98008A073E86BA857245EFE0C14FB24798431F
:103BA800B24783D767008A07BE853A85EFD0006D94
:103BB800A247139707014183B2472393E700B2470F
:103BC800724798C381473E85B250456182807971BA
:103BD80006D62AC62EC4224789679387077163F4DD
:103BE800E700C1576DA0B24783D767003E87A24759
:103BF80063E7E700A2453245B937AA8749A8B24723
:103C080083D76700FD173ECE19A8B2479843F247FD
:103C18008A07BA979C4399E7F247FD173ECEF247C9
:103C2800EDF711A00100F24785073ECE7247A24783
:103C38006374F700A2473ECE91457245EFE0412FED
:103C4800AA873ECCE24799E3C15791A0B2479C436B
:103C580085C7B2479843F2478A073E86BA856245C8
:103C6800EFE04143B2479843B24783D767008A07DA
:103C7800BE853A85EFD08060F247139707014183EC
:103C8800B2472393E700B247624798C381473E850E
:103C9800B25045618280011106CE2AC62EC4A247C1
:103CA80089E73245853581472DA8B24783D7670014
:103CB8003E87A2476391E702B2479843A2478A0723
:103CC8003E8681453A85EFE0E142B24705472392B7
:103CD800E700814739A032453535A2453245A5353B
:103CE800AA873E85F24005618280797106D62AC688
:103CF8002EC402CE3247A2476314F7008147D9A0E9
:103D0800A24783D7670095E7B24783D7670085C383
:103D1800B24705472392E700B2479843B24783D793
:103D280067008A073E8681453A85EFE0A13C8147D6
:103D380051A8A24783D76700FD173ECC19A8A24710
:103D48009843E2478A07BA979C4399E7E247FD17E9
:103D58003ECCE247EDF711A00100E24785073ECCD3
:103D6800A24703974700B2472392E700B24783D799
:103D780067003E87E2476379F700E2453245E13361
:103D88002ACEF24785C735A8B2479843E2478A0743
:103D98003E97B24783D76700BE86E247B387F640AF
:103DA8008A073E8681453A85EFE0C134B247984399
:103DB800A2479443E2478A073E86B6853A85EFE0F4
:103DC800612DF2473E85B2504561828041112AC675
:103DD800B24763C40700B24721A0B247B307F04017
:103DE8003E8541018280797106D622D42AC62EC426
:103DF800930720F93ECE85453245B1332ACEF247A6
:103E0800A9E7B2479843B24783D767008A073E8637
:103E180081453A85EFE0012EB247804322457D3740
:103E2800AA871CC0A247FD83C207C1830147B30705
:103E3800F7408607C207C1838507C207C183139766
:103E480007014187B2472392E700F2473E85B25007
:103E580022544561828041112AC62EC4B24783D7B5
:103E68006700960722476364F700814729A8B2478D
:103E78009843A24795838A07BA979843A247FD8B30
:103E8800B357F700858B3E8541018280797106D64C
:103E980022D42AC602CE15A8B2479843F2478A0709
:103EA800BA979C4385C3F24713945700B247984387
:103EB800F2478A07BA979C433E85EFD0F108AA8754
:103EC800A29721A8F24785073ECEB24783D767005D
:103ED8003E87F247E3E2E7FC81473E85B250225431
:103EE80045618280011106CE2AC6B2479843B2477F
:103EF80083D76700BE853A85EF10D007AA873E852D
:103F0800F24005618280011106CE2AC63245D93FAA
:103F1800AA879D078D833E85F2400561828079716D
:103F280006D62AC62EC432C2930720F93ECE92473F
:103F3800898312470D8B3337E0001377F70FBA9751
:103F48003ECCE2453245813B2ACEF24791EFB2475B
:103F58009843B24783D7670092462246BE853A8582
:103F6800EF1090252ACE0100F2473E85B2504561F8
:103F78008280011106CE2AC62EC432C2B2479843A7
:103F8800B24783D7670092462246BE853A85EF102E
:103F9800502AAA873E85F24005618280797106D64B
:103FA8002AC62EC4930720F93ECE3245253F2A87DC
:103FB800A247BA973ECCB24783D7670096076247B5
:103FC80063F1E702E247958362477D8B3337E00070
:103FD8001377F70FBA97BE853245B5362ACEF24722
:103FE80081EF02CEB2479843B24783D76700224693
:103FF800BE853A85EF10D041F2473E85B250456103
:104008008280011106CE2AC62EC4B24783D7670024
:1040180099CBB2479843B24783D767002246BE85FB
:104028003A85EF10102D81473E85F2400561828068
:1040380001112AC62EC4B24783D767003ECE39A8DD
:10404800B2479843F246B7070040FD17B6978A076C
:10405800BA979C4399E7F247FD173ECEF247EDF336
:1040680011A00100A24783D767003ECC39A8A24718
:104078009843E246B7070040FD17B6978A07BA97F4
:104088009C4399E7E247FD173ECCE247EDF311A0C8
:1040980001007247E24763F4E7008547ADA862472D
:1040A800F24763F7E706FD57BDA0B2479843F246CB
:1040B800B7070040FD17B6978A07BA979843A247F3
:1040C80094437246B7070040FD17B2978A07B69720
:1040D8009C4363F4E70085473DA8B2479843F246FE
:1040E800B7070040FD17B6978A07BA979843A247C3
:1040F80094437246B7070040FD17B2978A07B697F0
:104108009C436374F700FD5739A0F247FD173ECE74
:10411800F247C1FF81473E850561828001112AC6A9
:104128002EC4B24783D767003ECE39A8B24798431A
:10413800F246B7070040FD17B6978A07BA979C431F
:1041480099E7F247FD173ECEF247EDF311A00100C3
:10415800A24783D767003ECC39A8A2479843E246D6
:10416800B7070040FD17B6978A07BA979C4399E7A7
:10417800E247FD173ECCE247EDF311A00100F247FC
:1041880089E7E24799E38147F9A07247E24763F676
:10419800E700B247839747007DA86247F24763F874
:1041A800E700A24783974700B307F0406DA0B247E6
:1041B800839747006359F000A2478397470063D469
:1041C8000700854749A8A247839747006352F0082C
:1041D800B2478397470063DD0706FD57ADA8B2478E
:1041E8009843F246B7070040FD17B6978A07BA9773
:1041F8009843A24794437246B7070040FD17B29709
:104208008A07B6979C4363F6E700B247839747004F
:1042180099A0B2479843F246B7070040FD17B697F2
:104228008A07BA979843A24794437246B707004053
:10423800FD17B2978A07B6979C436378F700B24791
:1042480083974700B307F04039A0F247FD173ECEE9
:10425800F247D1F781473E8505618280797106D69C
:104268002AC62EC422459D36AA873ECAA247FD8388
:10427800C207C1830147B307F7408607C207C18356
:104288008507C207C183C207C187231EF10085477E
:10429800231FF1005C083ECC3C08BE853245BD3D7D
:1042A800AA873E85B25045618280397106DE2AC6EA
:1042B8002EC432C2930720F93ED63247924763187C
:1042C800F700A2473ECEB2473EC4F2473EC232474D
:1042D800A2476309F700A2453245EFF01FA12AD68D
:1042E800B257F1E7B24705472392E700924783D7D1
:1042F80067003ED439A892479843A256B7070040B2
:10430800FD17B6978A07BA979C4399E7A257FD17F6
:104318003ED4A257EDF311A00100A25799E38147BB
:1043280041A8A2553245EFF01F822AD6B257C1E301
:10433800B2479C433ED292479C43A2563E86925532
:104348001255EF10301B2AD0A2578A071257BA9776
:104358003ED299A8B24783D767003E87A25763E148
:10436800E702A2578507BE853245EFF0CFFD2AD672
:10437800B25795EFB2479843A2578A07BA973ED2E9
:104388009257984382573E97925798C392579C43A7
:104398000257B3B7E70093F7F70F3ED0A257850748
:1043A8003ED4925791073ED28257CDF70100B257BB
:1043B8003E85F25021618280797106D62AC62EC4C4
:1043C80032C2930720F93ECE924783D767003ECC8E
:1043D80039A892479843E246B7070040FD17B697B9
:1043E8008A07BA979C4399E7E247FD173ECCE24714
:1043F800EDF311A00100A24783D767003E87E2478B
:104408006375F700D9573ECEDDA8A24783D767006A
:10441800BE853245EFF02FF32ACEF247EDE3A247EF
:1044280083D767003E87E24763FEE7022247B24729
:10443800630AF702B2479843E2478A07B306F700D0
:10444800A2479843E2478A073E97A24783D7670067
:104458003E86E247B307F6408A073E86BA85368528
:10446800EFD05143B24703D76700A24783D767000D
:1044780063F8E702B2479843A24783D767008A07E1
:104488003E97B24783D76700BE86A24783D76700A7
:10449800B387F6408A073E8681453A85EFD0914535
:1044A800B2479843A2478C4392479C43E2463E86D4
:1044B8003A85EF10700C2ACAD24795CFB247984375
:1044C800E2478A073305F700B2479843E2478A076D
:1044D8003E97B24783D76700BE86E247B387F64068
:1044E800BE865246BA85EF20205B2ACAD24781C7CA
:1044F800D9573ECE29A0B24705472392E700F24795
:104508003E85B25045618280797106D62AC62EC48E
:1045180032C236C0A247839747003ECCA247839752
:1045280047003E879247839747003307F702824741
:10453800B307F70263D0070692452245D53C2ACA3D
:10454800D24763C407021246A2453245B5352ACE82
:10455800F247B9EFD24789C7E247C207C18711A01E
:10456800854732472312F700A1A0224692453245DB
:10457800A1352ACEF2478DEFE247C207C183B307C0
:10458800F040C207C183139707014187B2472392BE
:10459800E70039A81246A2453245013B2ACEF24728
:1045A80081EBE247139707014187B2472392E7005F
:1045B800F2473E85B25045618280011106CE2AC677
:1045C8002EC432C285461246A2453245353FAA87D7
:1045D8003E85F24005618280011106CE2AC62EC4AE
:1045E80032C2FD561246A2453245393FAA873E855A
:1045F800F24005618280797106D62AC62EC432C27D
:104608001245EFF0AFFCAA873ECA9247FD83C20766
:10461800C1830147B307F7408607C207C1838507EF
:10462800C207C183C207C187231EF1008547231F24
:10463800F1005C083ECC3C083E86A2453245B53FB9
:10464800AA873E85B25045618280797106D62AC60E
:104658002EC432C21245EFF06FF7AA873ECA9247BE
:10466800FD83C207C1830147B307F7408607C20726
:10467800C1838507C207C183C207C187231EF10012
:104688008547231FF1005C083ECC3C083E86A245C6
:1046980032459937AA873E85B25045618280397183
:1046A80006DE2AC62EC432C2930720F93ED602D0AF
:1046B8003C083E85EFF02FC31C083E85EFF0AFC2E3
:1046C8003247A247631DF7003C08A2453E85EFF03C
:1046D800CFE12AD6B257639007103C083EC4324750
:1046E8009247631CF7001C0892453E85EFF0EFDF08
:1046F8002AD6B257EDE31C083EC2A24783D767000B
:104708003ED439A8A2479843A256B7070040FD17E0
:10471800B6978A07BA979C4399E7A257FD173ED4E4
:10472800A257EDF311A00100A25799E385473ED0A7
:10473800924783D767003ED239A89247984392564A
:10474800B7070040FD17B6978A07BA979C4399E7C1
:104758009257FD173ED29257EDF311A001009257E0
:1047680099E385473ED022579257BA97BE8532457E
:10477800EFF06FBD2AD6B257B9EF81453245EFF059
:104788008FE62AD6B257A1EBB2478843A2478C439B
:1047980092479C431257BE862256EF1030588257D4
:1047A80091C7B24705472392E70035A0A2478397F0
:1047B8004700139707014183924783974700C20731
:1047C800C183B307F702C207C18313970701418763
:1047D800B2472392E7001C083E85EFF0AFB23C08D1
:1047E8003E85EFF02FB2B2573E85F25021618280AC
:1047F800797106D62AC62EC432C2A24783D767006B
:104808003ECE21A0F247FD173ECEF24781CFA24708
:104818009843F246B7070040FD17B6978A07BA973C
:104828009C43EDD3924799C3F24799E781453245B6
:10483800EFF06FDBAA8799A0930720F93ECCF247E7
:104848008507BE853245EFF00FB02ACCE24795E7E1
:10485800A2453245EFF06FC92ACCE24799EFB2473B
:104868008843B24783D76700BE85A24790439247E3
:10487800FD173E87F246EF106058E2473E85B2507A
:1048880045618280797106D62AC62EC432C236C0E6
:10489800924689C6324692466369D600824781C7E6
:1048A80082477D5798C3FD578DA0B2463683814312
:1048B8009316030036CA02C8A24636878147C24605
:1048C80033E8E600D246B3E8F60042C846CA924743
:1048D8003E8E814E7286F6864245D245EFC05175AE
:1048E8002A87AE873ACC3ECEF24789C77D578147A3
:1048F8003ACC3ECE824789CB4247E2469247B387BD
:10490800F6021D8F824798C3E2473E85B250456143
:104918008280597186D6A2D42AC62EC432C236C025
:10492800930720F9BECE81450245EFF03F93AA8751
:1049380099E3D157D9A1DC003E85EFF0CF9A7C18D6
:104948003E85EFF04F9A5C183E85EFF0CF997C10CA
:104958003E85EFF04F9985472314F1028D472315C3
:10496800F1023C083ED282451245EFF06FECAA876F
:1049780063D80702B24789CB81453245EFF0AFC60D
:10498800AACEF64763950744A24789CB92452245AC
:10499800EFF0AFB5AACEF647639B07428147B1A9AE
:1049A800DC0092453E85EFF04FB4AACEF6476390FF
:1049B80007427C1882453E85EFF02FB3AACEF64712
:1049C8006397074085472310F104831701042314D4
:1049D800F104924783D7670089073E875C18BA8538
:1049E8003E85EFF04F96AACEF6476392073E5C18D5
:1049F80081453E85EFF02FBFAACEF6476399073C65
:104A0800924783D7670089073E877C10BA853E8521
:104A1800EFF06F93AACEF647639B073A7C183E8562
:104A2800EFF04FCCAA87FD8BBECA5647F94763E91A
:104A3800E7027D47D647B307F740BECADC00D64534
:104A48003E85EFF0AFD5AACEF647639207387C18BB
:104A5800D6453E85EFF08FD4AACEF64799C385AEEA
:104A680082CA8357A104FD17BEC883572104FD17C6
:104A7800BEC64647B647B307F740139757007C189A
:104A8800BA853E85EFF08FD1AACEF64763910734F9
:104A980035A05257C646B647B387F6408A07BA9735
:104AA8009843050798C37418D800DC003686BA8581
:104AB8003E851D36AACEF647639B07307818DC0082
:104AC800BA853E85EFF08FE5AA87E3D407FC464711
:104AD800B647B307F740139757007C18BA853E8549
:104AE800EFF02FD2AACEF6476393072EC647BECC67
:104AF80089AC1647E6478A07BA979843F256B647ED
:104B08008A07B6979C43636FF7005257E646B64745
:104B18009D8EB7070040FD17B6978A07BA977D574D
:104B280098C399A01647E6478A07BA978843164755
:104B3800E646B7070040FD17B6978A07BA978C4331
:104B48007257B6478A07BA9790435257E646B64710
:104B58009D8EB7070040FD17B6978A073304F70004
:104B680081460D33AA871CC06647854763FCE7006A
:104B78001647E646B7070040F917B6978A07BA9767
:104B88009C4311A0814712571CC3E64799CB16478F
:104B9800E646B7070040FD17B6978A07BA979C43C1
:104BA80011A08147125711071CC31647E6478A0709
:104BB8003E979257A107184398C35257E646B647FF
:104BC8009D8EB7070040FD17B6978A07BA97984396
:104BD800050798C35257E646B6479D8EB70700406B
:104BE800FD17B6978A07BA9798437D1798C37C1024
:104BF80081453E85EFF02F9FAACEF6476399071CA3
:104C0800B64799CB7257B646B7070040FD17B69717
:104C18008A07BA979C4311A0814732571CC3725721
:104C2800B6478A073E97B2579107184398C3525719
:104C3800E646B6479D8EB7070040FD17B6978A0728
:104C4800BA97944378107C103686BA853E854D36DF
:104C5800AACEF647639D071658107C10BA853E8584
:104C6800EFF0CFCBAA87E347F0F65257E646B647B0
:104C78009D8EB7070040FD17B6978A07BA979443E9
:104C880078187C103686BA853E859D36AACEF647BA
:104C9800639F07126647B647B307F740FD17139798
:104CA80057007C10BA853E85EFF04FAFAACEF64785
:104CB800639F07107410D800DC003686BA853E85DD
:104CC800EFF09F91AACEF64763930710DC00814569
:104CD8003E85EFF0AFD8AA8763D2070678187C1014
:104CE800BA853E85EFF06F80AACEF647EDE36647BA
:104CF800B647B307F740FD17139757007C10BA85DE
:104D08003E85EFF0AFA9AACEF647F1E37410D800BC
:104D1800DC003686BA853E85EFF03F8AAACEF64794
:104D2800DDE75257E646B6479D8EB7070040FD17A8
:104D3800B6978A07BA9798437D1798C3E647FD1731
:104D4800BECC6647B647E3E6E7DAB24795CF5C18CC
:104D5800BE853245EFE07FF9AACEF647ADEB924724
:104D6800839747001397070141838247839747003A
:104D7800C207C183B307F702C207C18313970701AC
:104D88004187B2472392E700A247A9C3DC00D64572
:104D98003E85EFF00FA7AACEF64795EB924783978B
:104DA80047002314F104DC00BE852245EFE0FFF341
:104DB800AACEF64789EF81452245EFF02FCAAA8788
:104DC80091E7A24705472392E70011A00100DC0004
:104DD8003E85EFE03FD37C183E85EFE0BFD25C18FC
:104DE8003E85EFE03FD27C103E85EFE0BFD13C0826
:104DF800B1453E85EFC0E043F6473E85B6502654A0
:104E080065618280797106D62AC62EC432C293079C
:104E180020F93ECE81451245EFF04FC4AA8763D4EE
:104E28000700D957A1A892462246B2450145EFF09E
:104E38005FAE2ACEF247B1E309A81246B245324521
:104E4800EFF0AFF72ACEF2478DEB81453245EFF010
:104E5800EFC0AA87E3C307FE09A81246B245324548
:104E6800EFF08FF72ACEF24789EB92453245EFF003
:104E7800EFAAAA87E3D307FE0100F2473E85B250A6
:104E8800456182805D7186C62ACE2ECC32CA36C86C
:104E98003AC6930720F93EDE81454245EFF00FBC44
:104EA800AA876357F000C2479C439C43858B99E3CC
:104EB800F157C5AA81455245EFF04FBAAA8763D486
:104EC8000700F157F9AA5245EFF0CF812A87896781
:104ED80063E9E7004245EFF0EF802A87896763F4CA
:104EE800E700F1577DAAD24783D7670081EB854554
:104EF8007245EFE05FEF2ADEF25765A2C24783D71B
:104F080067003E87D24783D76700BE853A85EF1092
:104F180090192ADC91456255EFD08101AA873EDAC3
:104F2800D25799E3C157B5AA5C103E85EFE0BFBBE5
:104F3800B24781C7B2479C4395E35C10C2453E85A2
:104F4800EF1020752ADEF257639D0712B2479DC7FE
:104F5800B247125798C32257D8C30DA0C24783D768
:104F68006700BE853245EFE01FBE2ADEF257639A1E
:104F78000710B24798433AD2DC433ED4E245724523
:104F8800EFE0BFD62ADEF257639D070EF2470547CA
:104F98002392E700C2457245EFF04F98AA8763C98C
:104FA80007004246F2457245B13D2ADEF257F1EB61
:104FB800C24783D76700BE857245EFE0DFB82ADEB7
:104FC800F257E1E3C2479C433E85EF10205B2AD8A5
:104FD800F2478843F2478C43C2479043C24783D77E
:104FE8006700BE86925752584257EF103034F24746
:104FF8008843F2478C43C2479043C24783D7670030
:10500800BE86D2479843D24783D767003E839257DC
:10501800D2583E889A87EF10D016F2478843F24755
:105028008C43C2479043C24783D76700BE86D25796
:105038004257EF109032E24703974700FD5763113C
:10504800F704D2479C439C43858B9DCBF2479843FA
:10505800F24783D76700BE853A85EF1030292AD6F4
:105068000546FD553255EFE07F98AA873E87F247FF
:105078002392E7007246C2457245EFF00FD42ADE4C
:105088000100E2578A07BE855255EFC0201FB2477C
:1050980081C7B2479C4389E75C103E85EFE09FA635
:1050A800F2573E85B64061618280397106DE2AC6B4
:1050B8002EC432C2930720F93ED67C083E85EFE025
:1050C8009FA25C083E85EFE01FA27C08A2453E85B2
:1050D800EFE0BFC12AD6B257639207125C08924527
:1050E8003E85EFE09FC02AD6B257639907107C0827
:1050F8003E85EFE0BFD92AD45C083E85EFE01FD992
:105108002AD2925791EF5C0881453E85EFE0BFD4E3
:10511800AA8799E7A2453245EFE03FBD2AD6F9A80C
:105128001257A2576374F70092573ED48547231C41
:10513800F100831781012310F10259A87C083E85EC
:10514800EFE0DFD42A877C08BA853E85EFE07FEB65
:105158002AD6B257C5E75C083E85EFE03FD32A87D9
:105168005C08BA853E85EFE0DFE92AD6B257D9E771
:1051780058087C08BA853E85EFE05FFAAA8763C6BF
:105188000702540878087C083686BA853E85EFF011
:10519800AFA22AD6B257BDE37C0885453E85EFE02D
:1051A8005FE62AD6B2578DC791A8740858085C08DC
:1051B8003686BA853E85EFF02FA02AD6B2579DEFE6
:1051C8005C0885453E85EFE0DFE32AD6B2579DE7C8
:1051D8007C0881453E85EFF06F88AA87A5F35C08B7
:1051E800A2553E85EFE09FDB2AD6B25781EB5C08DB
:1051F800BE853245EFE07FAF2AD601007C083E85A8
:10520800EFE05F905C083E85EFE0DF8FB2573E85A8
:10521800F25021618280397106DE2ACE2ECC32CA44
:1052280036C83AC6E24763D40700F157A1A0E24561
:105238005245EFF0AF82AA876344F000F1571DA8EA
:10524800D24783D76700BE857245EFE0DFA42AD630
:10525800B25799C3B25739A8F2478843E245D247B3
:105268009043F24783D76700BE86B2474247EF10A4
:10527800E055AA873E85F25021618280597186D611
:105288002AC62EC432C2930720F9BECE85451245E0
:10529800EFE0DFFCAA876344F000F15789AEFC0019
:1052A8003E85EFE05F84DC003E85EFE0DF837C181D
:1052B8003E85EFE05F835C183E85EFE0DF82DC0827
:1052C8003E85EFE05F827C103E85EFE0DF815C1079
:1052D8003E85EFE05F817C083E85EFE0DF805C087B
:1052E8003E85EFE05F80DC081246A2453E85753BAF
:1052F800AACEF6476398072ADC0885453E85EFE085
:10530800FFF5AA8781C7C957BECE69ACFC00124613
:10531800A2453E85EFF01FAFAACEF6476394072853
:10532800F800DC00BA853E85EFE03F9CAACEF64740
:10533800639A07267C1092453E85EFE01F9BAACE14
:10534800F647639107265C1092453E85EFE0FF998A
:10535800AACEF647639807247C1885453E85EFE07A
:105368009FA8AACEF647639F07225C1881453E8511
:10537800EFE07FA7AACEF647639607227C0881450F
:105388003E85EFE05FA6AACEF647639D07205C083E
:1053980085453E85EFE03FA5AACEF64763940720F2
:1053A800A5A8DC0085453E85EFE0BFC5AACEF64737
:1053B800639A071EF2579C43858B89E7D2579C4313
:1053C800858B8DCB741078187C183686BA853E8507
:1053D800EFF0AF9EAACEF6476396071CF400581864
:1053E8005C183686BA853E85EFF00F9FAACEF64741
:1053F800639A071A7C1885453E85EFE09FC0AACEC0
:10540800F6476391071A5C1885453E85EFE07FBF34
:10541800AACEF6476398071896479C43858BD1D345
:10542800A5A85C1085453E85EFE0BFBDAACEF6472E
:10543800639A0716F2479C43858B89E7D2479C43BA
:10544800858B8DCB741078087C083686BA853E85A6
:10545800EFF0AF96AACEF64763960714F400580803
:105468005C083686BA853E85EFF00F97AACEF647D8
:10547800639A07127C0885453E85EFE09FB8AACE5F
:10548800F647639107125C0885453E85EFE07FB7D4
:10549800AACEF6476398071092579C43858BD1D3C1
:1054A8005810DC00BA853E85EFE05FC7AA8763C560
:1054B80007045410D800DC003686BA853E85EFF024
:1054C800AF91AACEF647639F070C740878187C182A
:1054D8003686BA853E85EFF02F90AACEF647F9E3D7
:1054E800540858185C183686BA853E85EFF0CF8E7A
:1054F800AACEF647B9C37DA0D40058105C103686F2
:10550800BA853E85EFF04F8DAACEF647C1EF7418E5
:1055180078087C083686BA853E85EFF0EF8BAACEF0
:10552800F647C9E3541858085C083686BA853E859C
:10553800EFF08F8AAACEF647B5E7DC0081453E85B5
:10554800EFE0DFD1AA87E39907EC19A878087C086F
:105558001246BA853E85EFF04F86AACEF647B9E3E4
:105568007C0881453E85EFE07FCFAA87E3C007FE30
:1055780019A878087C081246BA853E85EFF0CF85D1
:10558800AACEF64785E37C0892453E85EFE01FB931
:10559800AA87E3D007FE7C08BE853245EFE0EFF42A
:1055A800AACE0100FC003E85EFE0CFD5DC003E85A9
:1055B800EFE04FD57C183E85EFE0CFD45C183E85F0
:1055C800EFE04FD4DC083E85EFE0CFD37C103E857A
:1055D800EFE04FD35C103E85EFE0CFD27C083E85EC
:1055E800EFE04FD25C083E85EFE0CFD1F6473E852D
:1055F800B6506561828041112AC6B2473EC6B2479D
:105608003E8541018280797106D62AC63245E53742
:105618002ACEF2473307F040F2478583B307F040BC
:10562800D98F3ECCE247FD833ECCE247B307F0403A
:105638003E85B25045618280797106D62AC62EC44D
:1056480032C232454D3FAA8793C7F7FF3ECE324755
:10565800A2477D8FF2469247F58FD98F3E85B2508B
:1056680045618280797106D62AC62EC432456137D3
:105678002ACE224549372ACC7247E247B98FFD83A3
:105688003E8551372ACA7247E247B307F7403E863C
:10569800E245524555372AC8C247FD833EC84245B0
:1056A8009D37AA873E85B25045618280797106D6BA
:1056B80022D42AC62EC432453D3F2A842245253F9E
:1056C800AA87A18F3ECE72453D3FAA873E85B2503C
:1056D800225445618280011106CE2AC62EC432C2E8
:1056E8001246A2453245893FAA873E85F2400561A8
:1056F8008280011106CE2AC62EC4A24532457D37C6
:10570800AA8793C7F7FF3E85F240056182800111A1
:1057180006CE2AC62EC4A2453245A937AA8793C702
:10572800F7FF3E85F2400561828041112AC62EC4EA
:105738003247A247F98F3E854101828041112AC62E
:105748002EC43247A247D98F3E854101828041113C
:105758002AC6B24793C7F7FF3E85410182800111EF
:1057680006CE2AC63245EFB07179AA873E85F24047
:1057780005618280797106D62AC62EC4A247FD1714
:105788003ECE25A8F2478A073247BA979C439DC365
:10579800F2478A073247BA979C433E85C9372A871A
:1057A80093070002998F3ECCF24713975700E247C0
:1057B800BA9701A8F247FD173ECEF247E3D407FC9B
:1057C80081473E85B25045618280011106CE2AC6C6
:1057D8003245EFB0717CAA873E85F2400561828030
:1057E800797106D62AC62EC4A247B9C7B2473ECE9B
:1057F8002247B7070040FD17BA978A073247BA977A
:105808003ECC35A0F2479C433E85C1372ACAE247C1
:105818009C433E855D3F2A87F24798C3E24752473B
:1058280098C3F24791073ECEE247F1173ECC724744
:10583800E247E3F9E7FC11A00100B250456182801C
:10584800797106D62AC62EC432C2A2479C43B245F5
:105858003E85753D2ACA0145EFF0FFD92ACE854716
:105868003ECC0DA0E2478A072247BA979C433E8563
:10587800EFF07FD9AA87BE857245C9352ACEE2479F
:1058880085073ECC62479247E36EF7FCD2457245E6
:105898007535AA873E85B25045618280797106D6F2
:1058A8002AC62EC432C20145EFF0FFD42ACE0145E4
:1058B800EFF07FD42AC80145EFF0FFD32ACC9247F6
:1058C8003ECA69A05247B7070040FD17BA978A0732
:1058D8002247BA9794435247B7070040FD17BA9733
:1058E8008A073247BA979C43BE853685EFF09FD723
:1058F8002AC8C245624599352ACC5247B7070040A5
:10590800FD17BA978A073247BA9794435247B707A1
:105918000040FD17BA978A072247BA979C43BE856D
:105928003685EFF03FD42AC862451535AA87BE856B
:105938004245E53BAA87BE85724509352ACEC24550
:105948006245ED3B2ACCD247FD173ECAD247BDFB84
:10595800F2473E85B25045618280797106D622D4DD
:105968002AC62EC432C236C03247A2476301F704A2
:1059780002CE0DA8F2478A072247BA979443F24706
:105988008A073247BA979043F2478A073247330467
:10599800F700B6850245EFF01FD4AA871CC0F2476E
:1059A80085073ECE72479247E366F7FC11A00100D7
:1059B800B250225445618280797106D62AC62EC417
:1059C80032C236C08247898302470D8B3337E000E5
:1059D8001377F70FBA973ECE2247F2476374F70062
:1059E800E157A1A0A24799E3814781A0A2478A076E
:1059F8003E8681453245EFC0E16F824795C3A24795
:105A0800139727008247B307F7403ECCB2473ECAF8
:105A18005247E247BA97024692453E85EFC08167F2
:105A2800A2453245EFF0DFDB81473E85B250456144
:105A38008280397106DE2AC62EC432C236C0A24719
:105A48008A073ECE724782476375F702F2473ED611
:105A58000247F247B307F7401247BA973ED40247C6
:105A6800F247B307F7403E8681451245EFC081688B
:105A780035A882473ED692473ED4B2573ED21DA0A3
:105A88009257F19B3247BA97984392578D8B8E075E
:105A9800B357F70093F7F70F99C3E157B9A0925797
:105AA80085073ED21257F247E36CF7FC02D00DA8E7
:105AB8008257F19B3247BA97984382578D8B8E074E
:105AC800B356F70032578257B307F740FD172257EE
