:0200000420409A
:10000000973200009382421E1703C05F130383FFE1
:100010009703C05F93834316B3836340630D7300FC
:10002000F113B38E530003AE0E00B30E730023A082
:10003000CE01E39703FE9702C05F93822214170359
:10004000C05F130363563303534063896200711327
:10005000B303530023A00300E31B03FE1741C05F5B
:10006000130141FA6F20304F01A000000000000092
:100070000000000000000000000000000000000080
:100080006F00000400000000000000006F10501C12
:100090000000000000000000000000006F1050246D
:1000A0000000000000000000000000006F10501B66
:1000B0000000000000000000000000000000000040
:1000C000739002349702C05F9382C2FF23A2620042
:1000D0007323003423A06200732320349542630D00
:1000E00053009D426301532CA142630D5362894228
:1000F000630B53706F10F00D73233034B702200C74
:10010000910263836222B712000C6381621691022E
:10011000638E6214B7C20002E1126382620C910224
:10012000638F620AB74200026387620091026386AE
:1001300062006F10100A11A89702C05F9382023507
:1001400083A2020083A2821711A89702C05F938244
:10015000E23383A20200910283A282177323103438
:1001600013733300630B0300732310341373C3FF43
:100170008322030093D2020129A073231034832227
:1001800003001703C05F1303E3F32326530093F226
:1001900032009382D2FF638E02001703C05F130305
:1001A00063F28322C30093D2220093F27200A10271
:1001B00019A81703C05F1303E3F08322C30093D28F
:1001C000720093F2F2018E021713000013038338BA
:1001D0009A92171300001303A34A67800200F322C8
:1001E000303483A2020073900234732310341373EB
:1001F0003300630B0300732310341373C3FF832294
:10020000030093D2020129A0732310348322030038
:100210001703C05F130303EB2326530093F232004E
:100220009382D2FF638E02001703C05F130383E93A
:100230008322C30093D2220093F27200A10219A874
:100240001703C05F130303E88322C30093D2720035
:1002500093F2F2018E02171300001303A32F9A9258
:10026000171300001303C34167800200F3223034E8
:1002700083A2020073900234F32230343713000C4F
:10028000B38262401703C05F1303432003230300BC
:100290001303C31216930323C312F3220034B3F2E1
:1002A0006200739002347323103413733300630BB2
:1002B0000300732310341373C3FF8322030093D20C
:1002C000020129A073231034832203001703C05FA7
:1002D000130343DF2326530093F232009382D2FFAD
:1002E000638E02001703C05F1303C3DD2326530090
:1002F00093D2220093F27200A10219A81703C05FE3
:10030000130343DC2326530093D2720093F2F201CD
:100310008E02171300001303E3239A9217130000B1
:100320001303033667800200F322103493F2320085
:10033000638B0200F322103493F2C2FF83A2020007
:1003400093D2020129A073231034832203007390F7
:10035000023493F232009382D2FF638A0200F322C6
:10036000003493D2220093F27200A10239A0F3224A
:10037000003493D2720093F2F2018E021703C05F31
:100380001303C31003230300032343157310033423
:10039000171300001303031C9A9217130000130392
:1003A000232E6780020073233034B702200C9102A1
:1003B00063856234B722000C638E62289102638BDE
:1003C0006228B7420002638062029102638D62007C
:1003D000B702000C63475300B712000C63C36200FE
:1003E00005A46F10005F7323103413733300630B85
:1003F0000300732310341373C3FF8322030093D2CB
:10040000020129A0732310348322030093D2220017
:1004100093F27200A1028E02171300001303032C43
:100420009A92170300001303C300678002007390C1
:100430000234F322303437430002B38262401703A0
:10044000C05F1303A304032303001303831716934E
:10045000F322003423205300F322303437430002C8
:10046000B3826240638802021703C05F1303030272
:1004700003230300832203003143B3025302170313
:10048000C05F1303E30016931103F322003423200B
:10049000530035A01703C05F130343FF032303007A
:1004A000832203003143B30253021703C05F1303D7
:1004B00023FE16931A83F3220034232053001703DC
:1004C000C05F1303A3FC032303000323C3161373AA
:1004D0008300630503129702C05F9382A2BE732359
:1004E000003423A662001703C05F130323FA03231B
:1004F0000300032303171373030863010310170397
:10050000C05F1303A3F80323030083220300739047
:100510000234F32200341703C05F1303A3BC23206B
:1005200053001703C05F130363F603230300832202
:1005300003003143B30253021703C05F130343F5B3
:1005400016938542232453001703C05F130303F45B
:10055000032303001303C31703230300B74200025E
:1005600083A2420063C462021703C05F130303F255
:10057000032303001303831703230300B74200027E
:1005800083A2020063E46200814211A08542639766
:1005900002069702C05F9382E2B27323003423A85D
:1005A0006200F32200343143B30253021703C05FE9
:1005B000130303EE9A927390023403A3020083A202
:1005C00042009A926394020063020302F322003411
:1005D00083A202003743000223205300F322003499
:1005E00003A34200B7420002232253009702C05FD8
:1005F000938242AD03A30201731003346F1000080D
:100600007323103413733300630B0300732310340C
:100610001373C3FF8322030093D2020129A0732323
:1006200010348322030093D2220093F27200A102BD
:100630008E02171300001303630A9A921703000037
:100640001303C30067800200732330342320530058
:100650006F10C0027323103413733300630B030055
:10066000732310341373C3FF8322030093D2020158
:1006700029A0732310348322030093D2220093F223
:100680007200A1028E0217130000130323059A9231
:10069000170300001303C300678002001703C05F45
:1006A0001303C3DE032303000323C312B3F2620068
:1006B00073900234F32230343723000CB38262404B
:1006C0001703C05F130383DC0323030013034312E8
:1006D0001693F3220034232053001703C05F130343
:1006E000E3DA032303000323C316137383006304B5
:1006F0000300232053006F0070789702C05F93823D
:10070000E2D883A2020003A34215631403006F1012
:10071000402CB702200C910223A0620023AA0214ED
:100720006F00D075C6821303400663D762001303BF
:100730003006638662048DA885421703C05F1303E9
:10074000639B23205300C6821703C05F1303839B60
:1007500023205300C2821703C05F1303A39B2320EF
:1007600053007323103411037310133481421703A1
:10077000C05F1303239B232053006F1090318542E9
:100780001703C05F1303039A23205300732310340D
:10079000110373101334C2821703C05F13038397CE
:1007A000232053006F10F02E9702C05F938202CE79
:1007B00083A202007323103423AC621473233034F9
:1007C00023AE62147323403023A0621603A3C21623
:1007D0001353830013738301630603002D4323A285
:1007E000621621A0214323A2621683A2821673906F
:1007F00012349702C05F9382E28C03A3420083A26B
:10080000020073002030F32230343703203013030A
:100810003307E383627E93F2F207130330076384A6
:1008200062006F10001BF322303493D2C20093F2A7
:1008300072000543638362020943638062020D43D1
:10084000638D62001543638A620019436387620007
:100850001D43638462006F10C017F322303493D2BB
:10086000420113034030E389620613035030638072
:10087000624E130310346381626813032034638A69
:10088000624813033034638C62620563130343F1DF
:100890006386627E13031030E38962001303003025
:1008A0006382620813034034E384623205631303F6
:1008B00003B0638962000563130323B0638C620293
:1008C0006F102011F322303493D2720093F2F201B0
:1008D0008E02732300B07310033417130000130348
:1008E00063C79A92170300001303C30067800200D6
:1008F0006F00D058F322303493D2720093F2F20199
:100900008E02732320B073100334171300001303F7
:1009100063C49A92170300001303C30067800200A8
:100920006F00D055F322303493D2720093F2F2016B
:100930008E021703C05F130363B503230300032371
:10094000C31673100334171300001303A3C09A9245
:10095000170300001303C30067800200F322303442
:1009600093D2F20093F2F2018E02171300001303E8
:10097000E3D69A9217030000210367800200739068
:100980000234F322303493D2C20093F27200054352
:10099000638162020943638462020D4363856204DA
:1009A0001543638862061943638362081D436388A5
:1009B000620A170300001303030E67000300F3220B
:1009C00000341703C05F130363AC03230300032346
:1009D000C316B3625300170300001303C30B7390D5
:1009E000023467000300F32200341703C05F1303CF
:1009F000E3A9032303000323C31693C2F2FFB3F258
:100A000062001703000013030309739002346700A8
:100A10000300F322303493D2F20093F2F201170371
:100A20000000130343077390023467000300F322AE
:100A3000303493D2F20093F2F2011703C05F130334
:100A4000E3A4032303000323C316B3625300170375
:100A50000000130343047390023467000300F32281
:100A6000303493D2F20093F2F2011703C05F130304
:100A7000E3A1032303000323C31693C2F2FFB3F2DF
:100A80006200170300001303030173900234670030
:100A90000300F322003493F2820063900204930275
:100AA000000873904230B722000C23A0020023A25A
:100AB00002001703C05F1303639D03230300832217
:100AC00003003143B38262021703C05F1303439CE8
:100AD0009A92014323A4620019ACF3220034372315
:100AE000020013038388B3F262001703C05F13038D
:100AF000E39903230300232653161703C05F130350
:100B0000E398032303000323C316137383006319BD
:100B10000300B722000C23A0020023A2020071A050
:100B20001703C05F130383960323030013034312C9
:100B3000B722000C8323030023A072008323430009
:100B400023A272009702C05F9382429483A20200A4
:100B50009382421303A342000A03B703000C9A9343
:100B600003AE020023A0C301A10203A342000A03B3
:100B7000B703000C9A9303AE020023A0C301A102A5
:100B800003A342000A03B703000C9A9303AE0200CA
:100B900023A0C301A10203A342000A03B703000C70
:100BA0009A9303AE020023A0C3011703C05F13038F
:100BB000E38D032303000323031713630308731058
:100BC00043301703C05F1303638C032303008322A6
:100BD000031793F20208E383022A832203003143BE
:100BE000B38262021703C05F1303838A9A9205439C
:100BF00023A4620097F2BF5F9382C24C7323003438
:100C000023A662001703C05F130343880323030076
:100C10001303C31703230300B742000283A2420059
:100C200063C462021703C05F1303438603230300F8
:100C30001303831703230300B742000283A20200B9
:100C400063E46200814211A085426383020045A0F3
:100C50001703C05F1303838303230300832203006E
:100C60007390023497F2BF5F9382C24573230034BE
:100C700023A86200F32200343143B3025302170366
:100C8000C05F1303E3809A927390023403A30200BF
:100C900083A242009A926394020063020302F32249
:100CA000003483A202003743000223205300F322C2
:100CB000003403A34200B74200022322530097F2FC
:100CC000BF5F9382224003A3020173100334F32217
:100CD000003417F3BF5F1303E3402320530097F260
:100CE000BF5F9382223E03A3C20073100334F3223A
:100CF00000343723020013038388B3F2620017F332
:100D0000BF5F1303A37803230300232653166F004A
:100D1000F016F322303493D2720093F2F2018E0275
:100D200017F3BF5F130383760323030003234316E4
:100D300073100334171300001303C3819A9217032F
:100D400000001303C300678002006F003013F3221A
:100D5000303493D2720093F2F2018E0217F3BF5F28
:100D60001303C37203230300032383167310033496
:100D7000170300001303037E9A9217030000130366
:100D8000C30067800200F322303493D2F20093F262
:100D9000F2018E0217130000130343949A92170373
:100DA000000021036780020073900234F322303484
:100DB00093D2C20093F27200054363816202094339
:100DC000638462020D436383620415436384620695
:100DD0001943638D62061D436380620A1703000096
:100DE0001303C30C67000300F322003417F3BF5F43
:100DF0001303C3690323030003238316B362530061
:100E0000170300001303830A67000300F322003472
:100E100017F3BF5F130383670323030003238316C2
:100E200093C2F2FFB3F2620017030000130303083A
:100E300067000300F322303493D2F20093F2F20100
:100E4000170300001303830667000300F322303406
:100E500093D2F20093F2F20117F3BF5F130303631F
:100E60000323030003238316B36253001703000018
:100E70001303C30367000300F322303493D2F2005C
:100E800093F2F20117F3BF5F1303436003230300E0
:100E90000323831693C2F2FFB3F26200170300002C
:100EA0001303C30067000300F322003417F3BF5F8E
:100EB0001303C35D0323030023245316C1A7F322A6
:100EC000303493D2720093F2F2018E0217F3BF5FB7
:100ED0001303C35B032303000323C31573100334FD
:100EE00017030000130303679A921703000013030C
:100EF000C3006780020059A7F322303493D27200F6
:100F000093F2F2018E0217F3BF5F130323580323FA
:100F10000300032383157310033417030000130326
:100F200063639A92170300001303C30067800200F3
:100F3000F322303493D2F20093F2F2018E021703BF
:100F400000001303A3799A9217030000210367801E
:100F5000020073900234F322303493D2C20093F231
:100F600072000543638162020943638462020D4398
:100F700063856204154363886206194363836208CC
:100F80001D436388620A170300001303030E670002
:100F90000300F322003417F3BF5F1303234F03232F
:100FA000030003238315B3625300739002341703C5
:100FB00000001303830B67000300F322003417F3D0
:100FC000BF5F1303A34C032303000323831593C2C2
:100FD000F2FFB3F2620073900234170300001303B0
:100FE000C30867000300F322303493D2F20093F277
:100FF000F2011703000013034307739002346700E4
:101000000300F322303493D2F20093F2F20117F38B
:10101000BF5F1303A3470323030003238315B362B6
:101020005300170300001303430473900234670056
:101030000300F322303493D2F20093F2F20117F35B
:10104000BF5F1303A344032303000323831593C249
:10105000F2FFB3F262001703000013030301739061
:10106000023467000300F322003417F3BF5F130359
:10107000E34103230300232C531409A5F322303446
:1010800093D2720093F2F2018E02732340F1731037
:101090000334170300001303E34B9A921703000075
:1010A0001303C30067800200D1ABF322303493D224
:1010B000720093F2F2018E02732310307310033426
:1010C00017030000130303499A9217030000130348
:1010D000C300678002005DA3F322303493D2720014
:1010E00093F2F2018E0217F3BF5F1303233A032337
:1010F00003000323031773100334170300001303C3
:1011000063459A92170300001303C300678002002F
:10111000F322303493D2F20093F2F2018E021703DD
:1011200000001303A35B9A9217030000210367805A
:10113000020073900234F322303493D2C20093F24F
:1011400072000543638162020943638462020D43B6
:10115000638362041543638462061943638D6206E8
:101160001D436380620A170300001303C30C67006A
:101170000300F322003417F3BF5F1303233103236B
:10118000030003230317B362530017030000130384
:10119000830A67000300F322003417F3BF5F1303D1
:1011A000E32E032303000323031793C2F2FFB3F2DA
:1011B0006200170300001303030867000300F32213
:1011C000303493D2F20093F2F201170300001303BC
:1011D000830667000300F322303493D2F20093F2C7
:1011E000F20117F3BF5F1303632A032303000323F2
:1011F0000317B3625300170300001303C303670010
:101200000300F322303493D2F20093F2F20117F389
:10121000BF5F1303A327032303000323031793C212
:10122000F2FFB3F26200170300001303C30067006C
:10123000030017F3BF5F1303632503230300032396
:10124000C311F3220034B372530017F3BF5F1303CB
:10125000E323032303002328531617F3BF5F13036D
:10126000E322032303000323C31613738300630DD8
:10127000031293E202087390423017F3BF5F130327
:10128000E320032303008322031793F202086387FA
:10129000023E832203003143B382620217F3BF5F31
:1012A0001303031F9A92054323A4620097F2BF5FC2
:1012B000938242E17323003423A6620017F3BF5FD9
:1012C0001303C31C032303001303C31703230300E7
:1012D000B742000283A2420063C4620217F3BF5FF9
:1012E0001303C31A03230300130383170323030009
:1012F000B742000283A2020063E46200814211A0AF
:10130000854263930200B5A217F3BF5F130303186E
:1013100003230300832203007390023497F2BF5F1C
:10132000938242DA7323003423A86200F32200344C
:101330003143B302530217F3BF5F130363159A924D
:101340007390023403A3020083A242009A92639432
:10135000020063020302F322003483A20200374337
:10136000000223205300F322003403A34200B742BB
:1013700000022322530097F2BF5F9382A2D403A3FB
:10138000020173100334F322003417F3BF5F130319
:1013900063D52320530097F2BF5F9382A2D203A3A9
:1013A000C20073100334D9AC17F3BF5F1303030EED
:1013B00003230300832203003143B382620217F345
:1013C000BF5F1303E30C9A92014323A462007DA440
:1013D00017F3BF5F1303830B032303000323C3111E
:1013E000F32240343373530073100334F322303448
:1013F00093D2720093F2F2018E02170300001303DE
:1014000063159A92170300001303C300678002005C
:10141000F322303493D2F20093F2F2018E021703DA
:1014200000001303A32B9A92170300002103678087
:10143000020073900234F322303493D2C20093F24C
:1014400072000543638162020943638462020D43B3
:10145000638362041543638462061943638D6206E5
:101460001D436380620A170300001303C30C670067
:101470000300F322003417F3BF5F13032301032398
:10148000030003230317B362530017030000130381
:10149000830A67000300F322003417F3BF5F1303CE
:1014A000E3FE032303000323031793C2F2FFB3F207
:1014B0006200170300001303030867000300F32210
:1014C000303493D2F20093F2F201170300001303B9
:1014D000830667000300F322303493D2F20093F2C4
:1014E000F20117F3BF5F130363FA0323030003231F
:1014F0000317B3625300170300001303C30367000D
:101500000300F322303493D2F20093F2F20117F386
:10151000BF5F1303A3F7032303000323031793C23F
:10152000F2FFB3F26200170300001303C300670069
:10153000030017F3BF5F130363F5032303000323C3
:10154000C311F3220034B3725300739042343DA2AE
:101550007320003467000300F320003467000300A9
:101560007321003467000300F32100346700030097
:101570007322003467000300010001000100C9A8C4
:10158000010001000100C5A0F3230034670003003F
:101590007324003467000300F32400346700030061
:1015A0007325003467000300F3250034670003004F
:1015B0007326003467000300F3260034670003003D
:1015C0007327003467000300F3270034670003002B
:1015D0007328003467000300F32800346700030019
:1015E0007329003467000300F32900346700030007
:1015F000732A003467000300F32A003467000300F5
:10160000732B003467000300F32B003467000300E2
:10161000732C003467000300F32C003467000300D0
:10162000732D003467000300F32D003467000300BE
:10163000732E003467000300F32E003467000300AC
:10164000732F003467000300F32F0034670003009A
:10165000732300347390023497F2BF5F938282A6A3
:1016600023A0620021A8732300347390023497F200
:10167000BF5F938222A523A2620009A073231034C6
:1016800013733300630B0300732310341373C3FF0E
:101690008322030093D2020129A0732310348322F2
:1016A000030093F232009382D2FF63880200F32298
:1016B000103489027390123431A0F3221034910255
:1016C0007390123497F2BF5F9382C29F03A34200CC
:1016D00083A2020073002030B30200006700030001
:1016E000B382000067000300B3020100670003003B
:1016F000B382010067000300B30202006700030029
:10170000E1A80100670003000100F9A867000300D9
:10171000B382030067000300B30204006700030004
:10172000B382040067000300B302050067000300F2
:10173000B382050067000300B302060067000300E0
:10174000B382060067000300B302070067000300CE
:10175000B382070067000300B302080067000300BC
:10176000B382080067000300B302090067000300AA
:10177000B382090067000300B3020A006700030098
:10178000B3820A0067000300B3020B006700030086
:10179000B3820B0067000300B3020C006700030074
:1017A000B3820C0067000300B3020D006700030062
:1017B000B3820D0067000300B3020E006700030050
:1017C000B3820E0067000300B3020F00670003003E
:1017D000B3820F006700030097F2BF5F9382828E8F
:1017E00083A202006700030097F2BF5F9382828D9D
:1017F00083A242006700030097F2BF5F938202C991
:1018000083A2020003A382157310133403A3C2162C
:10181000137303081353430083A2C216B3E262009A
:1018200013F3F2F797F2BF5F938242C683A20200DE
:1018300023A6621603A30216136303087310433032
:1018400097F2BF5F938282C483A2020003A3C216F1
:10185000137383006305031603A3021713730308AE
:10186000630F031483A202003143B382620217F3B1
:10187000BF5F1303E3C19A92054323A46200814230
:10188000054373900234F3220034054363D9620A9E
:1018900097F2BF5F938202837323003423A6620012
:1018A000B1423303530297F2BF5F938262BE9A92B2
:1018B0007390023473230034854221030323030011
:1018C000630F03027323003411030323030097F211
:1018D000BF5F9382228683A2420063E16202732388
:1018E00000341A830323030097F2BF5F938282843C
:1018F00083A2020063E46200814211A085426392E8
:10190000020297E2BF5F9382E27B03A3C2007310DF
:101910000334F322003417E3BF5F1303A37C2320B7
:10192000530097E2BF5F9382E27903A3C200731072
:101930000334F3220034850273900234A9B797E28E
:10194000BF5F9382227A83A202007D53E38F6252AB
:101950007390023497E2BF5F9382C27673230034A0
:1019600023A86200F32200343143B302530217F379
:10197000BF5F1303E3B19A927390023403A3020092
:1019800083A242009A926394020063020302F3224C
:10199000003483A202003743000223205300F322C5
:1019A000003403A34200B74200022322530097E20F
:1019B000BF5F9382227103A302017310033497E285
:1019C000BF5F9382227003A3420083A202007300D0
:1019D000203097F2BF5F938262AB83A20200732331
:1019E000103423AC62147323303423AE6214732397
:1019F000203423A262167323403023A0621603A36F
:101A0000C21613738300120383A2C21633635300FA
:101A1000137373FF97F2BF5F938242A783A2020002
:101A200023A6621603A382167310133493020008D0
:101A30007390423097E2BF5F9382C26803A3420073
:101A400083A2020073002030130000001300000086
:101A500001A00100130000001300000013000000AB
:101A60007390023497E2BF5F9382C26523A2620043
:101A70007323003423A0620097F2BF5F938202A118
:101A800083A202007323103423AC6214B702200C2B
:101A9000910283A2020097F2BF5F9382229F83A2EA
:101AA000020023AA621403A3C216137373FF03A3D5
:101AB000C21683A282169382C2027390123497E2F6
:101AC000BF5F9382226003A3420083A202007300DF
:101AD000203001001300000013000000130000007C
:101AE0007390023497E2BF5F9382C25D23A26200CB
:101AF0007323003423A06200F32240301303F0F775
:101B0000B3F262007390423069A797E2BF5F93829D
:101B1000625D83A202007D53638D627617E3BF5F2F
:101B20001303435A2328530017F3BF5F130303968D
:101B300003230300032303006389624417E3BF5FA9
:101B4000130343588322030113038018B302530283
:101B500017E3BF5F13038362169303A3C2161373C5
:101B600083006319030003A30217137303086313AD
:101B7000030005A797E2BF5F9382C25403A342000C
:101B800083A202007390023497E2BF5F9382825374
:101B900023A262007323003423A0620097F2BF5F88
:101BA0009382C28E83A20200A10223A0120023A26C
:101BB000220023A4320023A6420017E3BF5F1303D1
:101BC00063508322030017F3BF5F1303238C0323A7
:101BD000030021032328530097E2BF5F9382824EC4
:101BE00003A3420097F2BF5F9382428A83A202005E
:101BF000A10223AA620023AC720023AE820023A0BC
:101C0000920223A2A20223A4B20223A6C20223A804
:101C1000D20223AAE20223ACF20223AE020323A0E3
:101C2000120523A2220523A4320523A6420523A8D8
:101C3000520523AA620523AC720523AE820523A0B8
:101C4000920723A2A20723A4B20723A6C20723A8B0
:101C5000D20723AAE20723ACF20797F2BF5F938271
:101C6000E28283A20200938242087323003023A001
:101C700062007323103423A262007323203423A450
:101C800062007323303423A662007323403023A8FC
:101C9000620017E3BF5F1303E34283220301930350
:101CA0008018B382530217E3BF5F1303234D1693CB
:101CB00097E2BF5F9382827D23A0620097E2BF5FBD
:101CC0009382C27C83A20200938282097310003A3D
:101CD0007310103A7310203A7310303A03A30200C5
:101CE0007320033A03A342007310033BA10203A332
:101CF00002007320033A03A342007310133BA102B6
:101D000003A302007320033A03A342007310233B92
:101D1000A10203A302007320033A03A3420073103D
:101D2000333BA10203A302007320133A03A3420032
:101D30007310433BA10203A302007320133A03A3D1
:101D400042007310533BA10203A302007320133A15
:101D500003A342007310633BA10203A3020073209C
:101D6000133A03A342007310733B03A302007320D2
:101D7000233A03A342007310833BA10203A3020092
:101D80007320233A03A342007310933BA10203A3E1
:101D900002007320233A03A342007310A33BA10265
:101DA00003A302007320233A03A342007310B33B42
:101DB00017E3BF5F1303836D032303000323C316DD
:101DC0001373830063190300B722000C23A00200E1
:101DD00023A2020071A017E3BF5F1303236B032349
:101DE000030013034312B722000C8323030023A034
:101DF00072008323430023A2720097E2BF5F9382A5
:101E0000E26883A202009382421303A342000A0302
:101E1000B703000C9A9303AE020023A0C301A102F2
:101E200003A342000A03B703000C9A9303AE020017
:101E300023A0C301A10203A342000A03B703000CBD
:101E40009A9303AE020023A0C301A10203A34200A0
:101E50000A03B703000C9A9303AE020023A0C30148
:101E600097E2BF5F9382826283A20200A10283A0F5
:101E7000020003A1420083A1820003A2C20083A248
:101E8000020117EEBF5F130E6E60032E0E00210ECF
:101E900003234E017390023497E2BF5F9382822244
:101EA00023A262007323003423A0620097E2BF5F85
:101EB0009382C25D83A20200A10283A3820103A4D4
:101EC000C20183A4020203A5420283A5820203A6E3
:101ED000C20283A6020303A7420383A7820303A8C7
:101EE000C20383A8020403A9420483A9820403AAAB
:101EF000C20483AA020503AB420583AB820503AC8F
:101F0000C20583AC020603AD420683AD820603AE72
:101F1000C20683AE020703AF420783AF820797E290
:101F2000BF5F9382A25683A202009382420803A35A
:101F30000200136303087310033003A342007310FD
:101F4000133403A382007310233403A3C20073105D
:101F5000333429A0130300087310433097E2BF5FA6
:101F60009382C25283A202007323203423A26216FA
:101F70007323303423AE62149382420803A34200D9
:101F80009382C2F723AC62140DA897E2BF5F9382DD
:101F9000E24F83A2020003A3C21613738300630BF4
:101FA000031E7323103423AC62147323203423A242
:101FB00062167323303423AE6214B742000203A3C7
:101FC000020097E2BF5F9382E21783A202009A9217
:101FD00063E562007350003419A073D000343743B6
:101FE00000022320530017E3BF5F1303A314232031
:101FF0005300B742000203A3420097E2BF5F9382FF
:10200000621483A242009A92732300341693B7425B
:10201000000223A2620097E2BF5F9382A21123A273
:10202000620017E3BF5F13036346032303008322A9
:1020300003003143B382620217E3BF5F13034345DA
:102040009A9223A402007D5397E2BF5F9382820994
:1020500023A0620097E2BF5F9382C20D03A34200F8
:102060007310033403A30200B742000223A06200EE
:102070007323003423A2620017E3BF5F13038304BA
:1020800003230301B142B382620217E3BF5F13036C
:1020900023409A92014323A4620081420543739036
:1020A0000234F3220034054363D9620A97E2BF5F2A
:1020B000938242017323003423A66200B1423303AA
:1020C000530297E2BF5F9382A23C9A9273900234CC
:1020D000732300348542210303230300630F0302AB
:1020E0007323003411030323030097E2BF5F93823D
:1020F000620483A2420063E16202732300341A8304
:102100000323030097E2BF5F9382C20283A202000F
:1021100063E46200814211A085426392020297E269
:10212000BF5F938222FA03A3C20073100334F32229
:10213000003417E3BF5F1303E3FA2320530097E251
:10214000BF5F938222F803A3C20073100334F3220B
:102150000034850273900234A9B717E3BF5F1303FD
:10216000E332032303008322C31693F272FF93E248
:1021700002082326531603238316710373101334A6
:1021800097E2BF5F938202F403A3420083A202009E
:102190007300203097E2BF5F9382422F83A2020038
:1021A00003A3C216137373FF1363030823A66216F7
:1021B00097E2BF5F938202F37D5323A062008142C6
:1021C000054373900234F3220034054363D9620A55
:1021D00097E2BF5F938202EF7323003423A662006D
:1021E000B1423303530297E2BF5F9382622A9A920D
:1021F00073900234732300348542210303230300C8
:10220000630F03027323003411030323030097E2D7
:10221000BF5F938222F283A2420063E162027323D2
:1022200000341A830323030097E2BF5F938282F096
:1022300083A2020063E46200814211A0854263929E
:10224000020297E2BF5F9382E2E703A3C20073102A
:102250000334F322003417E3BF5F1303A3E8232002
:10226000530097E2BF5F9382E2E503A3C2007310BD
:102270000334F3220034850273900234A9B797E245
:10228000BF5F938222E403A3420083A20200730093
:10229000203097E2BF5F9382E2E203A3420083A271
:1022A00002007390023497E2BF5F9382A2E123A2FF
:1022B00062007323003423A0620097E2BF5F938221
:1022C000E21C83A20200A10223A0120023A222008A
:1022D00023A4320023A6420017E3BF5F130383DE6B
:1022E0008322030017E3BF5F1303431A0323030092
:1022F00021032328530097E2BF5F9382A2DC03A34C
:10230000420097E2BF5F9382621883A20200A1029B
:1023100023AA620023AC720023AE820023A09202A3
:1023200023A2A20223A4B20223A6C20223A8D2029D
:1023300023AAE20223ACF20223AE020323A0120579
:1023400023A2220523A4320523A6420523A8520571
:1023500023AA620523AC720523AE820523A092074F
:1023600023A2A20723A4B20723A6C20723A8D20749
:1023700023AAE20723ACF20797E2BF5F9382021120
:1023800083A20200938242087323003023A06200DC
:102390007323103423A262007323203423A4620029
:1023A0007323303423A662007323403023A86200D5
:1023B00097E2BF5F938202D483A202000543638F3A
:1023C000620497E2BF5F9382620C83A2020003A3C0
:1023D0000200054E630AC303014E630CC30193035D
:1023E00080189E9217E3BF5F1303430A2320530014
:1023F000B1A017E3BF5F130363D897E2BF5F938277
:10240000E20823A062001DA897EEBF5F938E8ED1D5
:1024100083AE0E00054FE381EEFD0DA097E2BF5F96
:102420009382C2D5054393038018330373029A92B3
:1024300017E3BF5F130383052320530097E2BF5FB9
:102440009382C20483A20200938282097310003A2D
:102450007310103A7310203A7310303A03A302003D
:102460007320033A03A342007310033BA10203A3AA
:1024700002007320033A03A342007310133BA1022E
:1024800003A302007320033A03A342007310233B0B
:10249000A10203A302007320033A03A342007310B6
:1024A000333BA10203A302007320133A03A34200AB
:1024B0007310433BA10203A302007320133A03A34A
:1024C00042007310533BA10203A302007320133A8E
:1024D00003A342007310633BA10203A30200732015
:1024E000133A03A342007310733B03A3020073204B
:1024F000233A03A342007310833BA10203A302000B
:102500007320233A03A342007310933BA10203A359
:1025100002007320233A03A342007310A33BA102DD
:1025200003A302007320233A03A342007310B33BBA
:1025300097E2BF5F938282F583A20200A10283A08B
:10254000020003A1420083A1820003A2C20083A271
:10255000020117EEBF5F130E6EF3032E0E00210E65
:1025600003234E017390023497E2BF5F938282B5DA
:1025700023A262007323003423A0620097E2BF5FAE
:102580009382C2F083A20200A10283A3820103A46A
:10259000C20183A4020203A5420283A5820203A60C
:1025A000C20283A6020303A7420383A7820303A8F0
:1025B000C20383A8020403A9420483A9820403AAD4
:1025C000C20483AA020503AB420583AB820503ACB8
:1025D000C20583AC020603AD420683AD820603AE9C
:1025E000C20683AE020703AF420783AF820797E2BA
:1025F000BF5F9382A2E983A202009382420803A3F1
:102600000200136303087310033003A34200731026
:10261000133403A382007310233403A3C200731086
:10262000333429A0130300087310433097EEBF5FC3
:10263000938E4EAF03AF0E00854E6389EE0397EE87
:10264000BF5F938E2EAB03AF0E00FD5E638EEE0375
:1026500097EEBF5F938E0EAB03AF0E00FA8897E242
:10266000BF5F938222A97D5323A0620097EEBF5FD4
:10267000938E4EAA03AF0E007A88814217E3BF5FA4
:10268000130343AA2320530009A097E2BF5F93825C
:1026900062A303A3420083A2020073002030000063
:1026A000000000000000000000000000797122D648
:1026B0000018232EA4FC232604FEB5A0B707008033
:1026C000138787178326C4FD93078018B387F60204
:1026D000BA9783A6C711B707008013860707032799
:1026E000C4FDBA878E07BA978A07B297984F832797
:1026F000C4FE8A07BA979C430547B317F70033E730
:10270000F600B7070080938687170326C4FD93075A
:102710008018B307F602B69723AEE7108327C4FEEE
:1027200085072326F4FEB7070080138787178326C3
:10273000C4FD93078018B387F602BA9703A78711E1
:102740008327C4FEE3ECE7F6232404FEC9A0B70701
:102750000080938607070327C4FDBA878E07BA97C0
:102760008A07B6979853832784FE8A07BA979C43B3
:102770002320F4FE232204FE41A0832704FE13D766
:102780005700B7070080938687170326C4FD930779
:102790002006B307F602BA97938787048A07B6978D
:1027A000D047B7070080938507078326C4FDB68707
:1027B0008E07B6978A07AE979453832784FE8A07BD
:1027C000B6979C438546B397F600B366F600B70705
:1027D0000080138687178325C4FD93072006B387DF
:1027E000F502BA97938787048A07B297D4C78327DD
:1027F00044FE85072322F4FE832744FE032704FEBC
:10280000E3EDE7F6832784FE85072324F4FEB7076C
:102810000080138787178326C4FD93078018B3872A
:10282000F602BA9703A70712832784FEE3E1E7F2D3
:1028300001000100325445618280011122CE001056
:102840002326A4FEB7070080938607070327C4FE4C
:10285000BA878E07BA978A07B697D843B70700801A
:10286000938687170326C4FE93078018B307F602E2
:10287000B69723A4E716B7070080938607070327B8
:10288000C4FEBA878E07BA978A07B6979847B707E4
:102890000080938687170326C4FE93078018B3072A
:1028A000F602B69723A4E70801007244056182800E
:1028B000411122C6000897D2FFFF9382A27C93E2C7
:1028C000120073905230010073E063300100324413
:1028D00041018280797122D60018232EA4FC83271F
:1028E000C4FD2326F4FE8327C4FE7390173493029D
:1028F0000008739002307300203001000100325450
:1029000045618280411122C600089302000873B01D
:1029100042300100B70600801307100A814723A444
:10292000E65A23A6F65AB707008003A7875A83A75B
:10293000C75AB706008023A0E61423A2F6140100AC
:10294000324441018280797122D6001837C80002D2
:102950007118232604FF37C800026118232404FFDE
:1029600037480002232204FF0328C4FE032808007E
:10297000232004FF032884FE03280800232E04FDDF
:10298000032804FE232804FD232A04FC032804FD55
:102990009315080001452328A4FC232AB4FC8325B1
:1029A000C4FD2E878147832504FD33E6E50083259A
:1029B00044FDB3E6F5002328C4FC232AD4FCB70762
:1029C000008003A5875A83A5C75A032604FD8326E2
:1029D00044FD3307A6003A883338C800B387B600F1
:1029E000B306F800B6872328E4FC232AF4FC8326E8
:1029F00044FE032704FD832744FD98C2DCC2B707C9
:102A0000008003A5875A83A5C75A032604FD8326A1
:102A100044FD3307A6003A883338C800B387B600B0
:102A2000B306F800B6872328E4FC232AF4FCB70693
:102A30000080032704FD832744FD23A8E61223AA70
:102A4000F6129302000873A04230010001003254D4
:102A500045618280797106D622D40018232EA4FC09
:102A6000232604FEB1A80325C4FEB7070080938681
:102A700087170327C4FDBA878607BA979207BA97C4
:102A80000327C4FEBA97C9078E07B697CC47B70786
:102A90000080938687170327C4FDBA878607BA97F5
:102AA0009207BA970327C4FEBA97C9078E07B6974D
:102AB0009C473E8699228327C4FE85072326F4FE81
:102AC000B7070080938607070327C4FDBA878E07E0
:102AD000BA978A07B697D8478327C4FEE3E5E7F895
:102AE00001000100B250225445618280797122D6E2
:102AF0000018232EA4FC232604FED9A8B7070080C3
:102B0000938607070327C4FDBA878E07BA978A07FB
:102B1000B697984B8327C4FE8E07BA979C4323240D
:102B2000F4FEB7070080938607070327C4FDBA8722
:102B30008E07BA978A07B697984B8327C4FE8E07ED
:102B4000BA97DC432322F4FE832784FE13D72700A1
:102B5000832744FE8D83BA97FD172320F4FEB70721
:102B60000080938687170327C4FDBA878607BA9724
:102B70009207BA970327C4FEBA97C9078E07B6977C
:102B8000032704FED8C70327C4FE9357F741F983F0
:102B90003E970D8BB307F7408E077D47B317F700BD
:102BA0003E86B7070080938687170327C4FDBA8740
:102BB0008607BA979207BA970327C4FEBA97C90740
:102BC0008E07B69790C78327C4FE85072326F4FE99
:102BD000B7070080938607070327C4FDBA878E07CF
:102BE000BA978A07B697D8478327C4FEE3E8E7F089
:102BF00001000100325445618280011122CE001093
:102C00002326A4FE2324B4FE2322C4FE0327C4FEED
:102C1000BD4763EDE7128327C4FE13972700B7373C
:102C200040209387471ABA979C438287832784FE64
:102C3000032744FE7390073B7320073A09AA8327B2
:102C400084FE032744FE7390173B7320073A01A2CA
:102C5000832784FE032744FE7390273B7320073AA3
:102C6000FDA0832784FE032744FE7390373B732027
:102C7000073AF1A8832784FE032744FE7390473B5D
:102C80007320173AE9A0832784FE032744FE73903C
:102C9000573B7320173A65A8832784FE032744FE19
:102CA0007390673B7320173A5DA0832784FE032748
:102CB00044FE7390773B7320173A51A8832784FE14
:102CC000032744FE7390873B7320273A49A083274C
:102CD00084FE032744FE7390973B7320273A85A810
:102CE000832784FE032744FE7390A73B7320273A73
:102CF000B9A8832784FE032744FE7390B73B732053
:102D0000273AB1A0832784FE032744FE7390C73B74
:102D10007320373A2DA8832784FE032744FE73903F
:102D2000D73B7320373A25A0832784FE032744FE30
:102D30007390E73B7320373A19A8832784FE032753
:102D400044FE7390F73B7320373A11A00100010055
:102D5000724405618280411106C622C40008893E82
:102D60001520252119200100FDBF411106C622C4EE
:102D70000008B7070080938707079C473E85993E68
:102D80000100FDBF411106C622C400083928A12256
:102D9000B7070080370700801307871723A4E74889
:102DA0000100B240224441018280011106CE22CCB2
:102DB0000010232604FE29A2B70700809386070788
:102DC0000327C4FEBA878E07BA978A07B697984337
:102DD000B7070080938687170326C4FE93078018E1
:102DE000B307F602B69798C3B70700809386070724
:102DF0000327C4FEBA878E07BA978A07B697984703
:102E0000B7070080938687170326C4FE93078018B0
:102E1000B307F602B697D8C3B707008093860707B3
:102E20000327C4FEBA878E07BA978A07B697D84B8E
:102E3000B7070080938687170326C4FE9307801880
:102E4000B307F602B69723ACE710B7070080938666
:102E500007070327C4FEBA878E07BA978A07B69773
:102E6000D84FB7070080938687170326C4FE9307C1
:102E70008018B307F602B69723A0E712B7070080C1
:102E8000138787178326C4FE93078018B387F6023B
:102E9000BA9709671307078023A6E7168327C4FE9E
:102EA0003E85613A8327C4FE3E8589318327C4FE6F
:102EB0003E85EFF0AFFF8327C4FE85072326F4FE8F
:102EC0000327C4FE8547E3D9E7EE01000100F24085
:102ED000624405618280411122C60008010032442B
:102EE00041018280411106C622C40008213C010034
:102EF000B240224441018280411106C622C400082A
:102F000099340100B240224441018280411122C61D
:102F100000080100324441018280797122D60018F4
:102F2000232604FE232204FED1A8232004FE55A05C
:102F3000B707008093860707032744FEBA878E07EA
:102F4000BA978A07B697984B832704FE8E07BA97DD
:102F50009843B70700809386474A8327C4FE8E07AD
:102F6000B69798C3B707008093860707032744FEE8
:102F7000BA878E07BA978A07B697984B832704FEBD
:102F80008E07BA979443B707008013860707032775
:102F900044FEBA878E07BA978A07B297984B832761
:102FA00004FE8E07BA97DC433387F600B70700802C
:102FB0009386474A8327C4FE8E07B697D8C38327D4
:102FC000C4FE85072326F4FE832704FE85072320FD
:102FD000F4FEB707008093860707032744FEBA87ED
:102FE0008E07BA978A07B697D847832704FEE3E18E
:102FF000E7F4832744FE85072322F4FE032744FEDB
:103000008547E3D4E7F2232E04FCD9A08327C4FD2F
:103010002324F4FE8327C4FD8507232CF4FC35A864
:10302000B70700801387474A832784FD8E07BA9726
:103030009843B70700809386474A832784FE8E070C
:10304000B6979C436376F700832784FD2324F4FE20
:10305000832784FD8507232CF4FC832784FD032725
:10306000C4FEE3EFE7FAB70700801387474A8327D8
:1030700084FE8E07BA9798432328E4FCDC43232A76
:10308000F4FCB70700801387474A832784FE8E0726
:10309000BA97370700809306474A0327C4FD0E07F7
:1030A0003697144394C35843D8C3B7070080138797
:1030B000474A8327C4FD8E07BA97032704FD98C3A8
:1030C000032744FDD8C38327C4FD8507232EF4FCC2
:1030D0008327C4FE1387F7FF8327C4FDE3E8E7F2E5
:1030E0000100B70700801387474A8327C4FE8E0775
:1030F000BA977D5798C3B70700801387474A83273D
:10310000C4FE8E07BA977D57D8C30100325445617B
:103110008280011106CE22CC00100135854723267E
:10312000F4FEB9A0B70700801387474A8327C4FE7F
:103130008E07BA979843FD576302F7048327C4FEAE
:10314000FD17370700801307474A8E07BA97D84301
:10315000B70700809386474A8327C4FE8E07B69739
:103160009C4363EFE7008327C4FE85072326F4FE14
:103170000327C4FEFD47E3D7E7FA21A0010011A011
:103180000100F240624405618280411106C622C4FA
:103190000008413701457D380100B2402244410119
:1031A000828000002C2C40203E2C4020502C4020BF
:1031B000622C4020742C4020862C4020982C4020EB
:1031C000AA2C4020BC2C4020CE2C4020E02C4020BB
:1031D000F22C4020042D4020162D4020282D402088
:0431E0003A2D402024
:1031E40000004120004000000008008000080000AA
:1031F40000100080000400000014008000020000A1
:10320400003C0080000400000030011000100000A9
:103214000020011000100000000000080020000041
:10322400000048200000040000080080000800009E
:10323400001000800010000000200080002000002A
:1032440000300110001000000020011000100000E8
:10325400000000000000412042004120080000005E
:1032640000000080020000006001008001000000F6
:10327400680100800100000000004820420048204E
:103284000600000040000080010000006C01008086
:103294000100000070010080000000000000000038
:1032A400000000000000000000000000000000001A
:1032B400000000000000000000000000000000000A
:1032C400FFFFFFFF000000000000000000000000FE
:1032D400FFFFFFFF000000000000000000000000EE
:1032E400FFFFFFFF000000000000000000000000DE
:1032F400FFFFFFFF000000000000000000000000CE
:10330400FFFFFFFF000000000000000000000000BD
:1033140000000000000000000000000000000000A9
:103324000000000000000000000000000000000099
:103334000000000000000000000000000000000089
:103344000B00000007000000030000000B00000059
:043354000300000072
:02000004204199
:100000006F00803B00000000000000006F00004512
:100010000000000000000000000000006F006044CD
:100020000000000000000000000000006F00C0435E
:1000300000000000000000000000000000000000C0
:1000400000009711BF5F9381E101138101CB173548
:1000500000001305E58E9705BF5F9385A57A13868B
:10006000018163FAC5008322050023A05500110514
:100070009105E3EAC5FE138501819385018B6377C2
:10008000B500232005001105E36DB5FE170500003E
:100090001305056A5125CD2D97000000411106C4B6
:1000A00001458145492229A001A08280828000006B
:1000B000130101FFB71741202324810023261100DB
:1000C000938787FF130405006386070093050000EC
:1000D000EF009072B717008003A50786832785027B
:1000E00063840700E780070013050400EF20C05970
:1000F000797122D626D42AC62EC432C236C0B24660
:1001000036848144931804000148A246368E814EFD
:10011000B366C80136C8B3E6D80136CA9246368FF0
:10012000814F93170F000147824636838143B366A0
:10013000670036CCB3E777003ECE5247F2476247BE
:10014000F2474245D2453306A7403288333807018B
:10015000B386B740B3870641BE863287B6873A85F5
:10016000BE853254A25445618280397106DE22DC9C
:100170002ACC2ECE32CA36C83AC63EC4B717008043
:1001800083A747861306C00381453E855525B717CB
:10019000008083A74786A1071306000381453E859B
:1001A000412DB717008083A7478613073006D8C3B1
:1001B000B717008083A74786524798C7B7170080B4
:1001C00083A7478623A60700B717008003A44786A6
:1001D0001305000F812DAA875CC8B717008083A77D
:1001E00047861307000F98CFB717008003A74786ED
:1001F00074003C083A86C2453E85F9292AD6B717CD
:10020000008083A74786D84789476318F700B72738
:1002100041201385C768EF00702581473E85F25065
:100220006254216182801D7186CEB7274120938759
:1002300047709043D4439847DC4732C836CA3ACC1B
:100240003ECE373501102D2A37430080130303C0FB
:10025000232053002322530023245300232653003A
:1002600023285300232A5300232C5300232E53000A
:100270002320530223225302232453022326530212
:1002800023285302232A5302232C5302232E5302E2
:1002900023205304232253042324530423265304EA
:1002A000F32600C8732700C0F32700C8E39AF6FEC0
:1002B000B6C6BAC4BEC2B717008083A74786130666
:1002C000C00381453E85AD23B717008083A74786CD
:1002D000A1071306000381453E85992B3C10BE857E
:1002E0000145312EAAC0864781CB8645B7274120DC
:1002F0001385C769EF008079B717008083A7478609
:1003000023A207007C0010080C1028103E888147AB
:10031000014781469526AAC0864791CBB2473E86C3
:100320008645B72741201385C76CEF0020763247FA
:10033000814789461306204D025592553D351C10C4
:100340003E8541263C103E85C52CF32600C8732708
:1003500000C0F32700C8E39AF6FE36DE3ADC3EDA48
:1003600002D8E2567256A645364559332A87AE87DB
:100370003AD8C255B727412013850770012F01A035
:1003800041112AC6B7220110130380039A92370342
:10039000030023A06200B732011021439A92054363
:1003A00023A0620091029102A1021303302323A033
:1003B00062000100410182805D7186C696C49AC2C6
:1003C0009EC02ADE2EDC32DA36D83AD63ED442D26D
:1003D00046D072CE76CC7ACA7EC802C602C402C2A9
:1003E000B727412013854771EF005008F3222034CE
:1003F00016C2F322303416C6F322103416C49247C4
:10040000BE85B7274120138507734925B247BE85AE
:10041000B727412013850774952DA247BE85B727BE
:1004200041201385C7749D25B72741201385877503
:10043000EF00D0030100B640A64216438643725532
:10044000E2555256C2563257A25712588258724E2F
:10045000E24E524FC24F61617300203001007300C1
:100460002030010073002030411116C63EC48D4774
:10047000B702200C23A2F2000100B242A2474101C0
:100480007300203041112AC6FD573E85410182800C
:1004900041112AC62EC4A2470967D8C381473E85A9
:1004A0004101828041112AC603A78180B2473E974D
:1004B000938701CB636AF70003A78180B2473E9719
:1004C0009387013A63F4E700FD5729A803A78180C9
:1004D000B2473E9723A4E18003A78180B247B307C8
:1004E000F040BA973E854101828041112AC6B24749
:1004F00089CB324785476306F70032478947631443
:10050000F700854711A081473E8541018280411156
:100510002AC62EC432C281473E8541018280011124
:100520002AC62EC432C202CEFD573ECA02CC1DA03E
:10053000B737011091079C4313F7F70FA2472380A9
:10054000E700F24785073ECEA24785073EC4E24753
:1005500085073ECCE2471247E3ECE7FCF2473E85D5
:10056000056182804111AA87A307F1000100B73716
:1005700001109C43E3CD07FEB73701100347F1009C
:1005800098C30347F100A947631CF7000100B73780
:1005900001109C43E3CD07FEB7370110354798C3E0
:1005A000010041018280797106D62AC62EC432C26A
:1005B000A2473ECC02CE19A86247F247BA9783C73A
:1005C00007003E854537F24785073ECE7247924782
:1005D000E364F7FE92473E85B25045618280011187
:1005E0002AC62EC446CA42CCB247BE88A2473E881D
:1005F0007300000042CEF2473E850561828079712A
:1006000006D62AC62EC4C1773ECEA24799E3F2474A
:1006100005A0B717008003A70787A24798C38145A5
:10062000130540066D3F8145130540064D3FAA87DF
:100630003E85B25045618280011106CE2AC6B2477E
:1006400081C7B2477D5798C3814513055006413F86
:100650000100F2400561828041112AC6B24799E348
:10066000C17701A8B2479C4363D40700C17711A0AA
:1006700081473E8541018280397106DE2ACE2ECC2B
:1006800032CA36C83AC63EC442C2C1773ED6724567
:10069000E137AA8799EFD24799CFE247724798C3CB
:1006A000E2470547D8C38145130560060D3FAA8779
:1006B00029A0010011A00100C1773E85F2502161FF
:1006C0008280011106CE2AC6814513057006013FBE
:1006D0000100F24005618280011106CE2AC62EC4B7
:1006E00032C236C0B24781C7B2479C4399E3C17753
:1006F00005A0B247DC4399E3C17719A8924781E787
:10070000C177990731A0A24513058006C93DAA8784
:100710003E85F24005618280930505009306000046
:1007200013060000130500006F005003130101FFC2
:10073000B707412023248100370441201387070B8A
:100740001304040B3304E4402322910023261100F8
:10075000135424409384070B631C04008320C100BE
:1007600003248100832441001301010167800000FC
:100770001304F4FF93172400B387F40083A7070042
:10078000E78007006FF05FFD130101FF2324810064
:100790002322910037044120B70441209387040BA2
:1007A0001304040B3304F4402320210123261100F9
:1007B000135424409384040B13090000631089042C
:1007C000B7044120370441209387040B1304040B22
:1007D0003304F440135424409384040B13090000A1
:1007E000631889028320C10003248100832441000F
:1007F00003290100130101016780000083A70400A1
:100800001309190093844400E78007006FF01FFB71
:1008100083A704001309190093844400E7800700AC
:100820006FF01FFC9305050003A5C1806F008011C8
:1008300013030500630A06002300B3001306F6FF46
:1008400013031300E31A06FE67800000638A050E97
:1008500083A7C5FF130101FE232C8100232E110065
:100860001384C5FF63D407003304F4002326A100DA
:10087000EF10000283A781810325C100639E07005A
:100880002322040023AC8180032481018320C10141
:10089000130101026F1000006374F40203260400C8
:1008A000B306C400639AD70083A6070083A7470056
:1008B000B386C6002320D4002322F4006FF09FFCEF
:1008C0001387070083A7470063840700E37AF4FED9
:1008D000832607003306D700631886020326040028
:1008E000B386C6002320D7003306D700E39EC7F89F
:1008F00003A6070083A74700B306D6002320D7002E
:100900002322F7006FF05FF86378C4009307C000FC
:100910002320F5006FF05FF703260400B306C40040
:10092000639AD70083A6070083A74700B386C60053
:100930002320D4002322F400232287006FF0DFF469
:1009400067800000130101FE232A91009384350083
:1009500093F4C4FF23282101232E1100232C8100AE
:1009600023263101938484009307C00013090500F6
:1009700063F0F4069304C00063EEB40413050900A9
:10098000EF00107103A781811304070063180406A8
:1009900083A74181639A07009305000013050900AE
:1009A000EF00802D23AAA180938504001305090080
:1009B000EF00802C9309F0FF631A350B9307C000FA
:1009C0002320F90013050900EF00D06C6F0000012F
:1009D000E3D404FA9307C0002320F90013050000B4
:1009E0008320C101032481018324410103290101E2
:1009F0008329C100130101026780000083270400DE
:100A0000B387974063CE07041306B000637AF600FD
:100A10002320F4003304F400232094006F0000012D
:100A200083274400631A870223ACF1801305090071
:100A3000EF0050661305B40093074400137585FF5B
:100A40003307F540E30EF5F83304E400B387A7401D
:100A50002320F4006FF0DFF82322F7006FF01FFD72
:100A600013070400032444006FF05FF21304350001
:100A70001374C4FFE30285FAB305A440130509000B
:100A8000EF00801FE31A35F96FF05FF3130101FBEC
:100A90002322F104232481021304050003A5C1804D
:100AA00023261102232AB102232CC102232ED102B4
:100AB0002320E1042324010523261105630C0500EE
:100AC00083278501639807002326A100EF00D01E2D
:100AD0000325C10083258500930641031306040006
:100AE000232ED100EF0050668320C102032481022F
:100AF000130101056780000063160500832780004D
:100B00007300100083278501130101FE232A910041
:100B100023282101232E1100232C810023263101BB
:100B200023244101930405001389050063960706F9
:100B3000EF00901883A7840103A484006382070652
:100B4000B7374120938787886312F40603A44400D3
:100B50008357C40093F78700638607008327040147
:100B60006394070E9305040013850400EF00C0286A
:100B7000630C050C1305F0FF8320C10103248101E0
:100B800083244101032901018329C100032A810033
:100B90001301010267800000032485006FF05FFAF3
:100BA00013850400EF0050116FF09FF9B737412013
:100BB000938787866316F40003A484006FF05FF9BF
:100BC000B737412093878784E314F4F803A4C40063
:100BD0006FF01FF82324F4001309190063C60704FB
:100BE00083270400138717002320E4002380B70025
:100BF00083278400834509009387F7FFE39C05FC66
:100C00002324F40063D80704130604009305A0000E
:100C100013850400EF00C00A9307F0FFE30CF5F41E
:100C20001305A0006FF05FF50327840163C4E7009C
:100C3000E39845FB1306040013850400EF00400809
:100C4000E31835FB6FF01FF39309F0FF130AA000C0
:100C50006FF01FFA83270400138717002320E40096
:100C60001307A0002380E7006FF09FFB93050500AA
:100C700003A5C1806FF05FE8130101FF2324810009
:100C8000232291001304050013850500232611007B
:100C900023A00182EFF01F819307F0FF6318F50096
:100CA00083A70182638407002320F4008320C1000E
:100CB00003248100832441001301010167800000A7
:100CC000130101FE232C8100232A910023282101F6
:100CD000232E1100232631019304050013890500FA
:100CE0001304060063080500832785016394070049
:100CF000EF00807CB737412093878788631CF4041A
:100D000003A44400832784012324F4008357C400F0
:100D100093F7870063860700832704016390070623
:100D20009305040013850400EF00000D630805041B
:100D30001309F0FF8320C1010324810183244101B1
:100D40008329C100130509000329010113010102D0
:100D500067800000B7374120938787866316F400C9
:100D600003A484006FF01FFAB7374120938787846C
:100D7000E31AF4F803A4C4006FF0DFF8832704013A
:100D8000032504009379F90F1379F90F3305F54022
:100D900083274401634AF50093050400138504008A
:100DA000EF00C056E31605F88327840013051500ED
:100DB0009387F7FF2324F400832704001387170089
:100DC0002320E4002380370183274401638CA7009C
:100DD0008357C40093F71700E38E07F49307A0002E
:100DE000E31AF9F49305040013850400EF000052A0
:100DF000E30205F46FF0DFF3130101FF23229100FA
:100E000083A4C180232481002320210123261100F3
:100E10001309050013840500638A040083A7840175
:100E20006396070013850400EF000069B73741207F
:100E300093878788631AF40203A444008317C400CD
:100E400013F78700631A070813F7070163120704F3
:100E5000130790002320E90093E707042316F4000A
:100E60001305F0FF6F00800CB7374120938787860A
:100E70006316F40003A484006FF05FFCB7374120D1
:100E800093878784E31CF4FA03A4C4006FF01FFB6C
:100E900093F74700638C070283254403638C0500A6
:100EA000930744046386F50013050900EFF01F9AC9
:100EB000232A04028357C4002322040093F7B7FDBA
:100EC0002316F400832704012320F4008357C40071
:100ED00093E787002316F400832704016390070239
:100EE0008357C4001307002093F707286388E7009F
:100EF0009305040013050900EF00100A8317C400CE
:100F000013F7170063000704032744012324040098
:100F10003307E040232CE4000327040113050000FD
:100F20006316070013F70708E31807F28320C100D0
:100F300003248100832441000329010013010101DE
:100F40006780000013F72700930600006314070072
:100F5000832644012324D4006FF01FFC83A7C181A2
:100F60009308050063920702B7170080138547882E
:100F700023AEA18013050000938747886306050010
:100F80000327000023A4E70803A747001308F00184
:100F90001305F0FF6340E8066382080403A887088E
:100FA000630A0804131527003305A8002320C50091
:100FB00003230810130610003316E6003363C30042
:100FC000232068102320D508930620006398D800BA
:100FD00083264810B3E6C6002322D81093061700D4
:100FE0001317270023A2D700B387E70023A4B70075
:100FF0001305000067800000130101FD232A510141
:101000002328610123267101232481012326110253
:10101000232481022322910223202103232E310144
:10102000232C410123229101130B0500938A050013
:10103000130C100083A4C1816380040203A4440044
:1010400083A984081309F4FF13142400338A890048
:1010500033848400635C09028320C102032481027B
:1010600083244102032901028329C101032A81014A
:10107000832A4101032B0101832BC100032C810032
:10108000832C4100130101036780000063800A0282
:10109000639A09001309F9FF130ACAFF1304C4FF76
:1010A0006FF05FFB8327CA07E39657FF03A744004F
:1010B000832744001307F7FF631E270323A224019D
:1010C000E38A07FC83AC4400638A090083A6091005
:1010D00033172C01B376D70063920602E78007002E
:1010E00003A7440083A7C181E31697F5E384F4FACC
:1010F0006FF05FF4232204006FF09FFC83A6491079
:101100008325CAFF3377D7006318070013050B0048
:10111000E78007006FF0DFFC13850500E78007001C
:101120006FF01FFC8397C500130101FE232C810083
:10113000232A9100232E1100232821012326310187
:1011400013F7870093040500138405006310071448
:1011500003A745006346E00003A705046352E00EC1
:101160000327C402630E070C93D7C70003A904002A
:1011700093F7170023A00400832504026386070861
:10118000032644058357C40093F74700638E070086
:10119000832744003306F640832744036386070011
:1011A000832704043306F6408327C4028325040200
:1011B0009306000013850400E78007009307F0FF03
:1011C0006304F50883270401371700002322040075
:1011D0002320F4008357C400B3F7E70063840700BB
:1011E000232AA4048325440323A02401638A05043D
:1011F000930744046386F50013850400EFF00FE5C0
:10120000232A04026F00C003130600009306100097
:1012100013850400E70007009307F0FF130605009D
:10122000E312F5F683A70400E38E07F41307D00159
:101230006386E70013076001639EE70823A024018B
:10124000130500006F00000A03A704008317C40001
:10125000630207029306D0016306D700930660017C
:10126000631CD70683270401232204002320F400F3
:101270006FF05FF70327040193D7C7002322040010
:101280002320E40093F717006FF05FF583A90501B1
:10129000E38809FA03A9050093F7370023A0350175
:1012A00033093941130700006394070003A7450180
:1012B0002324E400E35620F98327840283250402D3
:1012C000930609001386090013850400E7800700D0
:1012D0006348A0028317C40093E707042316F400B1
:1012E0001305F0FF8320C101032481018324410100
:1012F000032901018329C100130101026780000055
:10130000B389A9003309A9406FF0DFFA83A705016B
:10131000638A0708130101FE232C8100232E11008C
:1013200013040500630C05008327850163980700FB
:101330002326B100EF0040188325C100B7374120B4
:10134000938787886392F502832544008397C500BD
:101350006380070413050400032481018320C10175
:10136000130101026FF01FDCB73741209387878696
:101370006396F500832584006FF05FFDB737412049
:1013800093878784E394F5FC8325C4006FF01FFCEA
:101390008320C10103248101130500001301010210
:1013A000678000001305000067800000130101FF43
:1013B0002324810023261100130405002316B50001
:1013C0002317C50023200500232205002324050040
:1013D0002322050623280500232A0500232C0500C7
:1013E00013068000930500001305C505EFF04FC4F8
:1013F000B72741209387072B2322F402B7274120E8
:10140000938707302324F402B72741209387473876
:101410002326F402B72741209387C73D8320C100CC
:10142000232084022328F4020324810013010101F4
:1014300067800000B71541209385C5306F00C0213B
:10144000130101FF9387F5FF2324810013941700F4
:101450003304F400131424003304F4001314340090
:1014600023202101138905009305440723229100BD
:1014700023261100EFF00FCD930405006300050251
:1014800023200500232225011305C50023A4A40061
:101490001306840693050000EFF08FB98320C10086
:1014A00003248100032901001385040083244100E3
:1014B0001301010167800000832785016396070AF5
:1014C000130101FFB71741202324810023261100B7
:1014D000938747432324F502B717008083A7078625
:1014E00023240504232605042328050413040500EA
:1014F0006316F50093071000232CF5001305040074
:10150000EF00C0062322A40013050400EF0000062C
:101510002324A40013050400EF0040052326A400A3
:10152000032544001306000093054000EFF01FE878
:10153000032584001306100093059000EFF01FE7C9
:101540000325C4001306200093052001EFF01FE6D9
:10155000930710008320C100232CF4000324810092
:10156000130101016780000067800000130101FF83
:10157000B71700802322910083A40786232021012E
:101580002326110083A78401232481001309050069
:101590006396070013850400EFF01FF29384840420
:1015A00003A4840083A744009387F7FF63DA07004E
:1015B00083A704006380070883A404006FF05FFE24
:1015C0000317C40063140706B707FFFF93871700CC
:1015D00023220406232004002322040023240400E1
:1015E0002326F40023280400232A0400232C0400CB
:1015F00013068000930500001305C405EFF04FA308
:10160000232A0402232C0402232404042326040492
:101610008320C100130504000324810083244100BA
:1016200003290100130101016780000013048406EF
:101630006FF09FF79305400013050900EFF05FE09E
:1016400023A0A40013040500E31805F69307C000C7
:101650002320F9006FF0DFFB130101FD2324810239
:1016600023202103232E3101232C41012328610152
:10167000232671012326110223229102232A5101DC
:1016800013090500138A050013048504930900005B
:10169000130B1000930BF0FF83248400832A440073
:1016A000938AFAFF63DE0A0203240400E31604FEB1
:1016B0008320C10203248102832441020329010201
:1016C000032A8101832A4101032B0101832BC100DD
:1016D000138509008329C1011301010367800000FC
:1016E00083D7C400637EFB008397E400638A77019D
:1016F0009385040013050900E7000A00B3E9A90077
:10170000938484066FF0DFF9130101F92324810625
:10171000138405008395E5002322910623202107E9
:1017200023261106930406001389060063DC0502D4
:101730008357C40093F70708639A07041307004010
:101740008320C106032481062320F90023A0E4009E
:101750000329010683244106130500001301010734
:101760006780000013068100EF005051E34205FC42
:101770000327C100B7F70000B3F7E70037E7FFFF23
:10178000B387E70093B717006FF05FFB9307000084
:10179000130700046FF0DFFA83D7C500130101FDC2
:1017A00023248102232611022322910223202103D4
:1017B000232E310193F7270013840500638A070263
:1017C000930774042320F4002328F40093071000E7
:1017D000232AF4008320C1020324810283244102CE
:1017E000032901028329C10113010103678000005D
:1017F0009306C1001306810093040500EFF0DFF0AB
:1018000083298100130905001385040093850900CD
:10181000EFF04F93631005028317C40013F70720FE
:10182000E31A07FA93F7C7FF93E727002316F4009C
:101830006FF01FF9B71741209387474323A4F402A1
:101840008357C4002320A4002328A40093E707089B
:101850002316F4008327C100232A34016382070280
:101860008315E40013850400EF001046630A0500A9
:101870008357C40093F7C7FF93E717002316F400BC
:101880008357C40033E527012316A4006FF09FF4AB
:101890006780000067800000832786009387F7FF3A
:1018A0002324F60063DC07000327860163C6E700F4
:1018B0009307A0006394F5006FF08FC083270600A4
:1018C00013850500138717002320E6002380B70047
:1018D00067800000130101FE232C8100232A910060
:1018E000232821012326310123244101232E110025
:1018F000130905009389050013040600B304D600FC
:10190000130AF0FF63169400130500006F00C00176
:10191000834504001386090013050900EFF0DFF783
:1019200013041400E31045FF8320C1010324810147
:1019300083244101032901018329C100032A810075
:101940001301010267800000130101F52324810ABD
:101950002322910A2320210B232E31092326110A49
:10196000232C4109232A51092328610923267109BF
:1019700023248109232291092320A109232EB107C1
:1019800093090500938405001309060013840600DB
:10199000630805008327850163940700EFF0DFB13A
:1019A000B7374120938787886394F41283A4490052
:1019B00083D7C40093F787006380071483A70401CB
:1019C000638C071293070002A304F102930700033C
:1019D000232201022305F10223268100930C5002E9
:1019E000373B4120B73B4120373D4120372C412038
:1019F000930A00001304090083470400638407006E
:101A000063949715B30D24416306240393860D0058
:101A1000130609009385040013850900EFF09FEB7E
:101A20009307F0FF6304F52C83274102B387B701C6
:101A30002322F10283470400638A072A9307F0FFF9
:101A40001309140023280100232E0100232AF1008A
:101A5000232C0100A309010423240106930D100087
:101A6000834509001306500013058B8AEF00502FA1
:101A70008327010113041900631C050C13F70701E8
:101A80006306070013070002A309E10413F78700A8
:101A9000630607001307B002A309E10483460900A7
:101AA0001307A0026384E60C0327C1011304090095
:101AB000930700001306900083460400930514006A
:101AC000938606FD6374D618639C070A6F00C00CEA
:101AD000B7374120938787866396F40083A48900F3
:101AE0006FF01FEDB737412093878784E392F4ECC2
:101AF00083A4C9006FF0DFEB938504001385090010
:101B0000EFF08FAFE30005EC1305F0FF8320C10A6F
:101B10000324810A8324410A0329010A8329C10974
:101B2000032A8109832A4109032B0109832BC10858
:101B3000032C8108832C4108032D0108832DC10744
:101B40001301010B67800000130414006FF0DFEA3B
:101B500013078B8A3305E5403395AD00B3E7A70043
:101B60002328F100130904006FF09FEF0327C10041
:101B700093064700032707002326D100634607008A
:101B8000232EE1006F0040013307E04093E7270078
:101B9000232EE1002328F100034704009307E0020D
:101BA0006318F702034714009307A002631EF70AA5
:101BB0008327C100130424001387470083A707006D
:101BC0002326E10063D407009307F0FF232AF100E6
:101BD000834504001306300013850B8BEF0050186B
:101BE0006302050293870B8B3305F54083270101C0
:101BF000130700043317A700B3E7E700130414002A
:101C00002328F100834504001306600013054D8B63
:101C1000130914002304B102EF0090146302050EAF
:101C200063920A0A032701018327C1001377071073
:101C300063020708938747002326F10083274102A8
:101C4000B38747012322F1026FF0DFDA93172700F1
:101C5000B387E700939717003387D70013840500F5
:101C6000930710006FF05FE513041400232A0100AE
:101C7000930700001307000013069000834604003A
:101C800093051400938606FD6378D600E38207F47B
:101C9000232AE1006FF0DFF393172700B387E700F3
:101CA000939717003387D70013840500930710001C
:101CB0006FF0DFFC9387770093F787FF93878700A8
:101CC0006FF09FF71307C10093064C8D1386040035
:101CD000930501011385090097000000E70000004B
:101CE0009307F0FF130A0500E31AF5F483D7C40045
:101CF00093F70704E39A07E0032541026FF01FE121
:101D00001307C10093064C8D13860400930501014F
:101D100013850900EF00801B6FF09FFC130101FD8C
:101D2000232A510183A70501930A070003A7850011
:101D30002324810223202103232E3101232C41015E
:101D400023261102232291022328610123267101F7
:101D5000930905001384050013090600138A060081
:101D600063D4E700930707002320F90003473404F6
:101D700063060700938717002320F90083270400D8
:101D800093F70702638807008327090093872700DA
:101D90002320F9008324040093F46400639E04006C
:101DA000130B9401930BF0FF8327C4000327090052
:101DB000B387E74063C2F40883473404B336F000C6
:101DC0008327040093F707026390070C130634047B
:101DD00093050A0013850900E7800A009307F0FFC6
:101DE0006308F506832704001307400093040000EE
:101DF00093F76700639CE7008324C40083270900EE
:101E0000B384F44063D40400930400008327840067
:101E1000032704016356F700B387E740B384F40057
:101E2000130900001304A401130BF0FF63902409AD
:101E3000130500006F0000029306100013060B004C
:101E400093050A0013850900E7800A00631A7503E9
:101E50001305F0FF8320C102032481028324410281
:101E6000032901028329C101032A8101832A410137
:101E7000032B0101832BC1001301010367800000C4
:101E8000938414006FF05FF23307D400130600034D
:101E9000A301C7040347540493871600B307F40053
:101EA00093862600A381E7046FF05FF2930610008B
:101EB0001306040093050A0013850900E7800A0051
:101EC000E30865F9130919006FF05FF6130101FCCF
:101ED000232C810223244103232251032320610365
:101EE000232E1102232A91022328210323263103C2
:101EF000232E7101232C8101232A910183C785019F
:101F0000138B060093068007130A0500138405004F
:101F1000930A060063EEF60093062006938B3504C1
:101F200063ECF6006386072C930680056382D7185E
:101F3000930C24046F0000041388D7F91378F80F6A
:101F400093065001E3E606FFB73641209386468E9E
:101F5000131828003308D80083260800678006007D
:101F600083270700938C25049386470083A70700E7
:101F70002320D7002301F404930710006F00002BE7
:101F800083A705008325070013F6070893864500FD
:101F90006308060683A405002320D70037374120B5
:101FA000832644001309C78B63D004201307D00293
:101FB000A301E4042324D40063D20606B3049040B2
:101FC0009309A000938C0B009385090013850400EE
:101FD000EF0040653305A90083470500938509009C
:101FE00013850400A38FFCFE138C0400EF00005F38
:101FF000938CFCFF93040500E3783CFD6F00001117
:1020000083A4050013F607042320D700E30806F88D
:102010009394040193D404416FF05FF893F7B7FFF2
:102020002320F4006FF09FF903A605008326070024
:102030001375060893854600630805002320B70042
:1020400083A406006F004001137606042320B70026
:10205000E30806FE83D40600373941201307F00653
:102060001309C98B93098000638EE7069309A000CA
:102070006F00400783A7050093E7070223A0F50040
:1020800037394120930780071309098DA302F4040F
:10209000832704008326070093F50708138646006C
:1020A000638E05002320C70083A406006F00000292
:1020B000373941201309C98B6FF05FFD93F5070491
:1020C0002320C700E38205FE83D4060013F7170020
:1020D0006306070093E707022320F400638E040AD7
:1020E00093090001A3010404832744002324F4007E
:1020F000E3CA07EC032704001377B7FF2320E400AB
:10210000E39204EC938C0B00E39E07EA93078000B4
:102110006394F9028327040093F71700638E070086
:10212000032744008327040163C8E70093070003E3
:10213000A38FFCFE938CFCFFB38B9B41232874017F
:1021400013070B0093860A001306C10093050400D1
:1021500013050A00EFF09FBC9304F0FF631E950C7B
:102160001305F0FF8320C10303248103832441036B
:10217000032901038329C102032A8102832A410220
:10218000032B0102832BC101032C8101832C41010C
:1021900013010104678000008327040093F7F7FD13
:1021A0002320F4006FF0DFF31309C78B9309A0001D
:1021B0006FF09FF383A605008327070003A6450160
:1021C00013F5060893854700630A05002320B7002E
:1021D00083A7070023A0C7006F0080012320B7005A
:1021E00093F6060483A70700E38606FE2390C70044
:1021F00023280400938C0B006FF09FF483270700C3
:1022000003A6450093050000938647002320D700CE
:1022100083AC070013850C00EF00803463060500D3
:10222000330595412322A400832744002328F4008A
:10223000A30104046FF0DFF08326040113860C0071
:1022400093850A0013050A00E7000B00E30A95F0E6
:102250008327040093F72700639407048327C100B2
:102260000325C400E350F5F0138507006FF09FEFDE
:10227000930610001306090093850A0013050A004F
:10228000E7000B00E30E35ED938414008327C400B0
:102290000327C100B387E740E3CCF4FC6FF01FFCD9
:1022A00093040000130994019309F0FF6FF01FFEDF
:1022B000130101FF23248100138405008395E500A9
:1022C00023261100EF00002C6340050283274405FC
:1022D000B387A700232AF4048320C10003248100CC
:1022E00013010101678000008357C40037F7FFFF27
:1022F0001307F7FFB3F7E7002316F4006FF0DFFDD5
:1023000083D7C500130101FE232C8100232A9100ED
:102310002328210123263101232E110093F70710D2
:102320009304050013840500130906009389060031
:10233000638A07008395E5009306200013060000DA
:10234000EF00001D8357C40037F7FFFF1307F7FFA7
:10235000B3F7E7008315E4002316F400032481019A
:102360008320C10193860900130609008329C10057
:102370000329010113850400832441011301010293
:102380006F004006130101FF232481001384050020
:102390008395E50023261100EF0080171307F0FF57
:1023A0008357C4006312E50237F7FFFF1307F7FFF7
:1023B000B3F7E7002316F4008320C1000324810053
:1023C000130101016780000037170000B3E7E70041
:1023D0002316F400232AA4046FF01FFE8395E50062
:1023E0006F004005130101FF232481002322910087
:1023F00013040500138505009305060013860600E7
:102400002326110023A00182EFE0EF999307F0FF4C
:102410006318F50083A70182638407002320F4007A
:102420008320C100032481008324410013010101A2
:1024300067800000130101FF232481002322910003
:1024400013040500138505002326110023A0018233
:10245000EFE04F839307F0FF6318F50083A7018235
:10246000638407002320F4008320C100032481003B
:10247000832441001301010167800000130101FF63
:1024800023248100232291001304050013850500F5
:10249000930506002326110023A00182EFD05FFFE1
:1024A0009307F0FF6318F50083A701826384070098
:1024B0002320F4008320C1000324810083244100F1
:1024C0001301010167800000130101FF2324810033
:1024D0002322910013040500138505002326110013
:1024E00023A00182EFE06F809307F0FF6318F500EF
:1024F00083A70182638407002320F4008320C100A6
:10250000032481008324410013010101678000003E
:10251000130101FF232481002322910013040500ED
:102520001385050093050600138606002326110077
:1025300023A00182EFD0BFFD9307F0FF6318F500E1
:1025400083A70182638407002320F4008320C10055
:1025500003248100832441001301010167800000EE
:1025600093F5F50F3306C5006316C500130500008B
:102570006780000083470500E38CB7FE1305150054
:102580006FF09FFE130101FF23248100232291009D
:102590001304050013850500930506001386060045
:1025A0002326110023A00182EFD07FF79307F0FFCD
:1025B0006318F50083A70182638407002320F400D9
:1025C0008320C10003248100832441001301010101
:1025D000678000006340050663C605061386050094
:1025E000930505001305F0FF630C06029306100027
:1025F000637AB6006358C00013161600939616004F
:10260000E36AB6FE1305000063E6C500B385C54066
:102610003365D50093D6160013561600E39606FED2
:102620006780000093820000EFF05FFB13850500D8
:10263000678002003305A0406348B000B305B04096
:102640006FF0DFF9B305B04093820000EFF01FF99F
:102650003305A040678002009382000063CA050032
:10266000634C0500EFF09FF71385050067800200BB
:10267000B305B040E35805FE3305A040EFF01FF668
:102680003305B040678002006F000000496E636F41
:1026900072726563742070696E0D00005445454385
:1026A0005F496E697469616C697A65436F6E7465C0
:1026B0007874206661696C6564207769746820634A
:1026C0006F6465203078257800000000544545434C
:1026D0005F4F70656E73657373696F6E20666169B5
:1026E0006C6564207769746820636F646520307856
:1026F0002578206F726967696E2030782578000030
:1027000025640A0000F2AA8A5024E411ABE2000218
:10271000A5D5C51B576F726C642031204578636561
:102720007074696F6E2048616E646C657221200060
:102730004D4341555345203D2025780A00000000B7
:102740004D5456414C203D2025780A004D455043BC
:10275000203D2025780A00004C656176696E67206F
:10276000576F726C64203120457863657074696FAF
